{
  "_format": "hh-sol-artifact-1",
  "contractName": "AuditRegistry",
  "sourceName": "contracts/AuditRegistry.sol",
  "abi": [
    {
      "inputs": [],
      "stateMutability": "nonpayable",
      "type": "constructor"
    },
    {
      "inputs": [],
      "name": "AccessControlBadConfirmation",
      "type": "error"
    },
    {
      "inputs": [
        {
          "internalType": "address",
          "name": "account",
          "type": "address"
        },
        {
          "internalType": "bytes32",
          "name": "neededRole",
          "type": "bytes32"
        }
      ],
      "name": "AccessControlUnauthorizedAccount",
      "type": "error"
    },
    {
      "inputs": [
        {
          "internalType": "address",
          "name": "target",
          "type": "address"
        }
      ],
      "name": "AddressEmptyCode",
      "type": "error"
    },
    {
      "inputs": [
        {
          "internalType": "address",
          "name": "implementation",
          "type": "address"
        }
      ],
      "name": "ERC1967InvalidImplementation",
      "type": "error"
    },
    {
      "inputs": [],
      "name": "ERC1967NonPayable",
      "type": "error"
    },
    {
      "inputs": [],
      "name": "EnforcedPause",
      "type": "error"
    },
    {
      "inputs": [],
      "name": "ExpectedPause",
      "type": "error"
    },
    {
      "inputs": [],
      "name": "FailedInnerCall",
      "type": "error"
    },
    {
      "inputs": [],
      "name": "InvalidInitialization",
      "type": "error"
    },
    {
      "inputs": [],
      "name": "NotInitializing",
      "type": "error"
    },
    {
      "inputs": [],
      "name": "ReentrancyGuardReentrantCall",
      "type": "error"
    },
    {
      "inputs": [],
      "name": "UUPSUnauthorizedCallContext",
      "type": "error"
    },
    {
      "inputs": [
        {
          "internalType": "bytes32",
          "name": "slot",
          "type": "bytes32"
        }
      ],
      "name": "UUPSUnsupportedProxiableUUID",
      "type": "error"
    },
    {
      "anonymous": false,
      "inputs": [
        {
          "indexed": true,
          "internalType": "bytes32",
          "name": "entryId",
          "type": "bytes32"
        },
        {
          "indexed": true,
          "internalType": "bytes32",
          "name": "resourceId",
          "type": "bytes32"
        },
        {
          "indexed": true,
          "internalType": "enum IAuditRegistry.AuditAction",
          "name": "action",
          "type": "uint8"
        },
        {
          "indexed": false,
          "internalType": "address",
          "name": "actor",
          "type": "address"
        },
        {
          "indexed": false,
          "internalType": "uint256",
          "name": "timestamp",
          "type": "uint256"
        }
      ],
      "name": "AuditLogged",
      "type": "event"
    },
    {
      "anonymous": false,
      "inputs": [
        {
          "indexed": false,
          "internalType": "uint64",
          "name": "version",
          "type": "uint64"
        }
      ],
      "name": "Initialized",
      "type": "event"
    },
    {
      "anonymous": false,
      "inputs": [
        {
          "indexed": false,
          "internalType": "address",
          "name": "account",
          "type": "address"
        }
      ],
      "name": "Paused",
      "type": "event"
    },
    {
      "anonymous": false,
      "inputs": [
        {
          "indexed": true,
          "internalType": "bytes32",
          "name": "role",
          "type": "bytes32"
        },
        {
          "indexed": true,
          "internalType": "bytes32",
          "name": "previousAdminRole",
          "type": "bytes32"
        },
        {
          "indexed": true,
          "internalType": "bytes32",
          "name": "newAdminRole",
          "type": "bytes32"
        }
      ],
      "name": "RoleAdminChanged",
      "type": "event"
    },
    {
      "anonymous": false,
      "inputs": [
        {
          "indexed": true,
          "internalType": "bytes32",
          "name": "role",
          "type": "bytes32"
        },
        {
          "indexed": true,
          "internalType": "address",
          "name": "account",
          "type": "address"
        },
        {
          "indexed": true,
          "internalType": "address",
          "name": "sender",
          "type": "address"
        }
      ],
      "name": "RoleGranted",
      "type": "event"
    },
    {
      "anonymous": false,
      "inputs": [
        {
          "indexed": true,
          "internalType": "bytes32",
          "name": "role",
          "type": "bytes32"
        },
        {
          "indexed": true,
          "internalType": "address",
          "name": "account",
          "type": "address"
        },
        {
          "indexed": true,
          "internalType": "address",
          "name": "sender",
          "type": "address"
        }
      ],
      "name": "RoleRevoked",
      "type": "event"
    },
    {
      "anonymous": false,
      "inputs": [
        {
          "indexed": false,
          "internalType": "address",
          "name": "account",
          "type": "address"
        }
      ],
      "name": "Unpaused",
      "type": "event"
    },
    {
      "anonymous": false,
      "inputs": [
        {
          "indexed": true,
          "internalType": "address",
          "name": "implementation",
          "type": "address"
        }
      ],
      "name": "Upgraded",
      "type": "event"
    },
    {
      "inputs": [],
      "name": "ADMIN_ROLE",
      "outputs": [
        {
          "internalType": "bytes32",
          "name": "",
          "type": "bytes32"
        }
      ],
      "stateMutability": "view",
      "type": "function"
    },
    {
      "inputs": [],
      "name": "DEFAULT_ADMIN_ROLE",
      "outputs": [
        {
          "internalType": "bytes32",
          "name": "",
          "type": "bytes32"
        }
      ],
      "stateMutability": "view",
      "type": "function"
    },
    {
      "inputs": [],
      "name": "LOGGER_ROLE",
      "outputs": [
        {
          "internalType": "bytes32",
          "name": "",
          "type": "bytes32"
        }
      ],
      "stateMutability": "view",
      "type": "function"
    },
    {
      "inputs": [],
      "name": "UPGRADER_ROLE",
      "outputs": [
        {
          "internalType": "bytes32",
          "name": "",
          "type": "bytes32"
        }
      ],
      "stateMutability": "view",
      "type": "function"
    },
    {
      "inputs": [],
      "name": "UPGRADE_INTERFACE_VERSION",
      "outputs": [
        {
          "internalType": "string",
          "name": "",
          "type": "string"
        }
      ],
      "stateMutability": "view",
      "type": "function"
    },
    {
      "inputs": [],
      "name": "VERSION",
      "outputs": [
        {
          "internalType": "uint256",
          "name": "",
          "type": "uint256"
        }
      ],
      "stateMutability": "view",
      "type": "function"
    },
    {
      "inputs": [
        {
          "internalType": "address",
          "name": "",
          "type": "address"
        },
        {
          "internalType": "uint256",
          "name": "",
          "type": "uint256"
        }
      ],
      "name": "actorEntries",
      "outputs": [
        {
          "internalType": "bytes32",
          "name": "",
          "type": "bytes32"
        }
      ],
      "stateMutability": "view",
      "type": "function"
    },
    {
      "inputs": [
        {
          "internalType": "bytes32",
          "name": "",
          "type": "bytes32"
        }
      ],
      "name": "entries",
      "outputs": [
        {
          "internalType": "bytes32",
          "name": "resourceId",
          "type": "bytes32"
        },
        {
          "internalType": "bytes32",
          "name": "resourceType",
          "type": "bytes32"
        },
        {
          "internalType": "bytes32",
          "name": "detailsHash",
          "type": "bytes32"
        },
        {
          "internalType": "bytes32",
          "name": "previousStateHash",
          "type": "bytes32"
        },
        {
          "internalType": "bytes32",
          "name": "newStateHash",
          "type": "bytes32"
        },
        {
          "internalType": "enum IAuditRegistry.AuditAction",
          "name": "action",
          "type": "uint8"
        },
        {
          "internalType": "address",
          "name": "actor",
          "type": "address"
        },
        {
          "internalType": "uint48",
          "name": "timestamp",
          "type": "uint48"
        },
        {
          "internalType": "uint48",
          "name": "blockNumber",
          "type": "uint48"
        }
      ],
      "stateMutability": "view",
      "type": "function"
    },
    {
      "inputs": [
        {
          "internalType": "address",
          "name": "actor",
          "type": "address"
        },
        {
          "internalType": "uint256",
          "name": "limit",
          "type": "uint256"
        }
      ],
      "name": "getEntriesByActor",
      "outputs": [
        {
          "internalType": "bytes32[]",
          "name": "",
          "type": "bytes32[]"
        }
      ],
      "stateMutability": "view",
      "type": "function"
    },
    {
      "inputs": [
        {
          "internalType": "bytes32",
          "name": "resourceId",
          "type": "bytes32"
        }
      ],
      "name": "getEntriesByResource",
      "outputs": [
        {
          "internalType": "bytes32[]",
          "name": "",
          "type": "bytes32[]"
        }
      ],
      "stateMutability": "view",
      "type": "function"
    },
    {
      "inputs": [
        {
          "internalType": "bytes32",
          "name": "entryId",
          "type": "bytes32"
        }
      ],
      "name": "getEntry",
      "outputs": [
        {
          "components": [
            {
              "internalType": "bytes32",
              "name": "resourceId",
              "type": "bytes32"
            },
            {
              "internalType": "bytes32",
              "name": "resourceType",
              "type": "bytes32"
            },
            {
              "internalType": "bytes32",
              "name": "detailsHash",
              "type": "bytes32"
            },
            {
              "internalType": "bytes32",
              "name": "previousStateHash",
              "type": "bytes32"
            },
            {
              "internalType": "bytes32",
              "name": "newStateHash",
              "type": "bytes32"
            },
            {
              "internalType": "enum IAuditRegistry.AuditAction",
              "name": "action",
              "type": "uint8"
            },
            {
              "internalType": "address",
              "name": "actor",
              "type": "address"
            },
            {
              "internalType": "uint48",
              "name": "timestamp",
              "type": "uint48"
            },
            {
              "internalType": "uint48",
              "name": "blockNumber",
              "type": "uint48"
            }
          ],
          "internalType": "struct IAuditRegistry.AuditEntry",
          "name": "",
          "type": "tuple"
        }
      ],
      "stateMutability": "view",
      "type": "function"
    },
    {
      "inputs": [
        {
          "internalType": "bytes32",
          "name": "resourceId",
          "type": "bytes32"
        }
      ],
      "name": "getFullAuditTrail",
      "outputs": [
        {
          "components": [
            {
              "internalType": "bytes32",
              "name": "resourceId",
              "type": "bytes32"
            },
            {
              "internalType": "bytes32",
              "name": "resourceType",
              "type": "bytes32"
            },
            {
              "internalType": "bytes32",
              "name": "detailsHash",
              "type": "bytes32"
            },
            {
              "internalType": "bytes32",
              "name": "previousStateHash",
              "type": "bytes32"
            },
            {
              "internalType": "bytes32",
              "name": "newStateHash",
              "type": "bytes32"
            },
            {
              "internalType": "enum IAuditRegistry.AuditAction",
              "name": "action",
              "type": "uint8"
            },
            {
              "internalType": "address",
              "name": "actor",
              "type": "address"
            },
            {
              "internalType": "uint48",
              "name": "timestamp",
              "type": "uint48"
            },
            {
              "internalType": "uint48",
              "name": "blockNumber",
              "type": "uint48"
            }
          ],
          "internalType": "struct IAuditRegistry.AuditEntry[]",
          "name": "",
          "type": "tuple[]"
        }
      ],
      "stateMutability": "view",
      "type": "function"
    },
    {
      "inputs": [
        {
          "internalType": "bytes32",
          "name": "resourceId",
          "type": "bytes32"
        }
      ],
      "name": "getLatestState",
      "outputs": [
        {
          "internalType": "bytes32",
          "name": "",
          "type": "bytes32"
        }
      ],
      "stateMutability": "view",
      "type": "function"
    },
    {
      "inputs": [
        {
          "internalType": "bytes32",
          "name": "resourceId",
          "type": "bytes32"
        }
      ],
      "name": "getResourceEntryCount",
      "outputs": [
        {
          "internalType": "uint256",
          "name": "",
          "type": "uint256"
        }
      ],
      "stateMutability": "view",
      "type": "function"
    },
    {
      "inputs": [
        {
          "internalType": "bytes32",
          "name": "role",
          "type": "bytes32"
        }
      ],
      "name": "getRoleAdmin",
      "outputs": [
        {
          "internalType": "bytes32",
          "name": "",
          "type": "bytes32"
        }
      ],
      "stateMutability": "view",
      "type": "function"
    },
    {
      "inputs": [
        {
          "internalType": "address",
          "name": "contractAddress",
          "type": "address"
        }
      ],
      "name": "grantLoggerRole",
      "outputs": [],
      "stateMutability": "nonpayable",
      "type": "function"
    },
    {
      "inputs": [
        {
          "internalType": "bytes32",
          "name": "role",
          "type": "bytes32"
        },
        {
          "internalType": "address",
          "name": "account",
          "type": "address"
        }
      ],
      "name": "grantRole",
      "outputs": [],
      "stateMutability": "nonpayable",
      "type": "function"
    },
    {
      "inputs": [
        {
          "internalType": "bytes32",
          "name": "role",
          "type": "bytes32"
        },
        {
          "internalType": "address",
          "name": "account",
          "type": "address"
        }
      ],
      "name": "hasRole",
      "outputs": [
        {
          "internalType": "bool",
          "name": "",
          "type": "bool"
        }
      ],
      "stateMutability": "view",
      "type": "function"
    },
    {
      "inputs": [
        {
          "internalType": "address",
          "name": "admin",
          "type": "address"
        }
      ],
      "name": "initialize",
      "outputs": [],
      "stateMutability": "nonpayable",
      "type": "function"
    },
    {
      "inputs": [
        {
          "internalType": "bytes32",
          "name": "",
          "type": "bytes32"
        }
      ],
      "name": "latestResourceState",
      "outputs": [
        {
          "internalType": "bytes32",
          "name": "",
          "type": "bytes32"
        }
      ],
      "stateMutability": "view",
      "type": "function"
    },
    {
      "inputs": [
        {
          "internalType": "bytes32",
          "name": "resourceId",
          "type": "bytes32"
        },
        {
          "internalType": "bytes32",
          "name": "resourceType",
          "type": "bytes32"
        },
        {
          "internalType": "enum IAuditRegistry.AuditAction",
          "name": "action",
          "type": "uint8"
        },
        {
          "internalType": "bytes32",
          "name": "detailsHash",
          "type": "bytes32"
        },
        {
          "internalType": "bytes32",
          "name": "previousStateHash",
          "type": "bytes32"
        },
        {
          "internalType": "bytes32",
          "name": "newStateHash",
          "type": "bytes32"
        }
      ],
      "name": "log",
      "outputs": [
        {
          "internalType": "bytes32",
          "name": "entryId",
          "type": "bytes32"
        }
      ],
      "stateMutability": "nonpayable",
      "type": "function"
    },
    {
      "inputs": [
        {
          "internalType": "bytes32[]",
          "name": "resourceIds",
          "type": "bytes32[]"
        },
        {
          "internalType": "bytes32[]",
          "name": "resourceTypes",
          "type": "bytes32[]"
        },
        {
          "internalType": "enum IAuditRegistry.AuditAction[]",
          "name": "actions",
          "type": "uint8[]"
        },
        {
          "internalType": "bytes32[]",
          "name": "detailsHashes",
          "type": "bytes32[]"
        },
        {
          "internalType": "bytes32[]",
          "name": "previousStateHashes",
          "type": "bytes32[]"
        },
        {
          "internalType": "bytes32[]",
          "name": "newStateHashes",
          "type": "bytes32[]"
        }
      ],
      "name": "logBatch",
      "outputs": [
        {
          "internalType": "bytes32[]",
          "name": "entryIds",
          "type": "bytes32[]"
        }
      ],
      "stateMutability": "nonpayable",
      "type": "function"
    },
    {
      "inputs": [],
      "name": "pause",
      "outputs": [],
      "stateMutability": "nonpayable",
      "type": "function"
    },
    {
      "inputs": [],
      "name": "paused",
      "outputs": [
        {
          "internalType": "bool",
          "name": "",
          "type": "bool"
        }
      ],
      "stateMutability": "view",
      "type": "function"
    },
    {
      "inputs": [],
      "name": "proxiableUUID",
      "outputs": [
        {
          "internalType": "bytes32",
          "name": "",
          "type": "bytes32"
        }
      ],
      "stateMutability": "view",
      "type": "function"
    },
    {
      "inputs": [
        {
          "internalType": "bytes32",
          "name": "role",
          "type": "bytes32"
        },
        {
          "internalType": "address",
          "name": "callerConfirmation",
          "type": "address"
        }
      ],
      "name": "renounceRole",
      "outputs": [],
      "stateMutability": "nonpayable",
      "type": "function"
    },
    {
      "inputs": [
        {
          "internalType": "bytes32",
          "name": "",
          "type": "bytes32"
        },
        {
          "internalType": "uint256",
          "name": "",
          "type": "uint256"
        }
      ],
      "name": "resourceEntries",
      "outputs": [
        {
          "internalType": "bytes32",
          "name": "",
          "type": "bytes32"
        }
      ],
      "stateMutability": "view",
      "type": "function"
    },
    {
      "inputs": [
        {
          "internalType": "bytes32",
          "name": "role",
          "type": "bytes32"
        },
        {
          "internalType": "address",
          "name": "account",
          "type": "address"
        }
      ],
      "name": "revokeRole",
      "outputs": [],
      "stateMutability": "nonpayable",
      "type": "function"
    },
    {
      "inputs": [
        {
          "internalType": "bytes4",
          "name": "interfaceId",
          "type": "bytes4"
        }
      ],
      "name": "supportsInterface",
      "outputs": [
        {
          "internalType": "bool",
          "name": "",
          "type": "bool"
        }
      ],
      "stateMutability": "view",
      "type": "function"
    },
    {
      "inputs": [],
      "name": "totalEntries",
      "outputs": [
        {
          "internalType": "uint256",
          "name": "",
          "type": "uint256"
        }
      ],
      "stateMutability": "view",
      "type": "function"
    },
    {
      "inputs": [],
      "name": "unpause",
      "outputs": [],
      "stateMutability": "nonpayable",
      "type": "function"
    },
    {
      "inputs": [
        {
          "internalType": "address",
          "name": "newImplementation",
          "type": "address"
        },
        {
          "internalType": "bytes",
          "name": "data",
          "type": "bytes"
        }
      ],
      "name": "upgradeToAndCall",
      "outputs": [],
      "stateMutability": "payable",
      "type": "function"
    },
    {
      "inputs": [
        {
          "internalType": "bytes32",
          "name": "resourceId",
          "type": "bytes32"
        }
      ],
      "name": "verifyAuditTrail",
      "outputs": [
        {
          "internalType": "bool",
          "name": "isValid",
          "type": "bool"
        },
        {
          "internalType": "uint256",
          "name": "brokenAt",
          "type": "uint256"
        }
      ],
      "stateMutability": "view",
      "type": "function"
    },
    {
      "inputs": [
        {
          "internalType": "bytes32",
          "name": "resourceId",
          "type": "bytes32"
        },
        {
          "internalType": "bytes32",
          "name": "expectedStateHash",
          "type": "bytes32"
        }
      ],
      "name": "verifyStateTransition",
      "outputs": [
        {
          "internalType": "bool",
          "name": "",
          "type": "bool"
        }
      ],
      "stateMutability": "view",
      "type": "function"
    }
  ],
  "bytecode": "0x60a080604052346100cc57306080527ff0c57e16840df040f15088dc2f81fe391c3923bec73e23a9662efc9c229c6a009081549060ff8260401c166100bd57506001600160401b036002600160401b031982821601610078575b6040516128b890816100d28239608051818181611539015261163d0152f35b6001600160401b031990911681179091556040519081527fc7f505b2f371ae2175ee4913f4499e1f2633a7b5936321eed1cdaeb6115181d290602090a1388080610059565b63f92ee8a960e01b8152600490fd5b600080fdfe6101a080604052600436101561001457600080fd5b60e060003560e01c91826301ffc9a714611bf6575081631e025ee514611bc6578163237073d214611b9a578163248a9ca314611b4c578163267b692214611a9f5781632f2ff15d14611a4157816336568abe146119d55781633f4ba83a146119345781634f1ef286146115b357816352d1902d1461151157816358e7e1401461122b578163598d6150146111d65781635c975abb1461119457816375ab954914610e8957816375b238fc146111595781637bf0fbde1461111e5781637fef036e146111005781638456cb59146110875781638e264def1461105b57816391d1485414610fe15781639a5e4eb414610f18578163a217fddf14610efc578163a4522adc14610eb5578163a5bcbf1014610e89578163ad3cb1cc14610db0578163ad8f188114610d38578163bb17799314610821578163bd2eaf67146106d8578163c4d66de814610445578163ce6a03551461027e57508063d1ef1d2214610255578063d547741f146101f5578063f72c0d8b146101ba5763ffa1ad741461019957600080fd5b346101b55760006003193601126101b557602060405160018152f35b600080fd5b346101b55760006003193601126101b55760206040517f189ab7a9244df0848122154315af71fe140f3db0fe014031783b0946b8c9d2e38152f35b346101b55760406003193601126101b557610253600435610214611ca1565b90806000527f02dd7bc7dec4dceedda775e58dd541e08a116c6c53815c0bd028192f7b62680060205261024e6001604060002001546121f5565b612637565b005b346101b55760206003193601126101b557610253610271611cc4565b610279612106565b6123da565b346101b5576020806003193601126101b55760043560005260018082526040600020928354906102ad82612099565b946102bb6040519687611d04565b828652601f196102ca84612099565b0160005b81811061042957505060005b83811061032e5750505050604051918083018184528451809152816040850195019160005b82811061030c5785870386f35b909192938261012088610321849a8951611d8a565b01979501939291016102ff565b61033b8183989698611d43565b919054600392831b1c600052600087526040600020916040519061035e82611ce7565b83548252898401548983015260028401546040830152830154606082015260048301546080820152600583015460ff8116600c8110156103fa578a9460069160a085015273ffffffffffffffffffffffffffffffffffffffff8360081c1660c085015265ffffffffffff809360a81c16888501520154166101008201526103e582886120f2565b526103f081876120f2565b50019593956102da565b7f4e487b7100000000000000000000000000000000000000000000000000000000600052602160045260246000fd5b8690610436989698612054565b828289010152019694966102ce565b346101b55760206003193601126101b55761045e611cc4565b7ff0c57e16840df040f15088dc2f81fe391c3923bec73e23a9662efc9c229c6a009081549060ff8260401c16159167ffffffffffffffff8116801590816106d0575b60011490816106c6575b1590816106bd575b50610693578260017fffffffffffffffffffffffffffffffffffffffffffffffff0000000000000000831617855561065e575b5073ffffffffffffffffffffffffffffffffffffffff811615610600576105a69061050e612789565b610516612789565b61051e612789565b610526612789565b60017f9b779b17422d0df92223018b32b4d1fa46e071723d6817e2486d003becc55f0055610552612789565b61055a612789565b7fcd5ed15c6e187e77e9aee88184c21f4f2182ab5827cb3b7e07fbedcd63f0330060ff19815416905561058c8161223a565b50610596816122f9565b506105a0816123da565b506124b5565b506105ad57005b7fffffffffffffffffffffffffffffffffffffffffffffff00ffffffffffffffff81541690557fc7f505b2f371ae2175ee4913f4499e1f2633a7b5936321eed1cdaeb6115181d2602060405160018152a1005b60646040517f08c379a000000000000000000000000000000000000000000000000000000000815260206004820152600c60248201527f5a65726f206164647265737300000000000000000000000000000000000000006044820152fd5b7fffffffffffffffffffffffffffffffffffffffffffffff0000000000000000001668010000000000000001178355836104e5565b60046040517ff92ee8a9000000000000000000000000000000000000000000000000000000008152fd5b905015856104b2565b303b1591506104aa565b8491506104a0565b346101b55760406003193601126101b5576106f1611cc4565b602473ffffffffffffffffffffffffffffffffffffffff60243592166000526002602052604060002080549083158015610818575b61080f575b6107368492946120b1565b7fffffffffffffffffffffffffffffffffffffffffffffffffffffffffffffffff8086019591949180871160005b86811061077d57604051806107798a82611e09565b0390f35b816107e15783818403018981116107b3579061079b60019288611d43565b90549060031b1c6107ac828b6120f2565b5201610764565b857f4e487b710000000000000000000000000000000000000000000000000000000060005260116004526000fd5b847f4e487b710000000000000000000000000000000000000000000000000000000060005260116004526000fd5b9250809261072b565b50818411610726565b346101b55760c06003193601126101b55767ffffffffffffffff6004358181116101b557610853903690600401611e45565b61018052906024358181116101b557610870903690600401611e45565b9290916044358181116101b55761088b903690600401611e45565b61016052610140526064358181116101b5576108ab903690600401611e45565b6101205260a0526084358181116101b5576108ca903690600401611e45565b60e0526101005260a4359081116101b5576108e9903690600401611e45565b60805260c0526108f7612199565b6108ff6126da565b610907612734565b82610180511480610d29575b80610d1a575b80610d0c575b80610cfe575b15610c7b5760326101805111610c1d57610941610180516120b1565b9165ffffffffffff9160005b6101805181106109895760017f9b779b17422d0df92223018b32b4d1fa46e071723d6817e2486d003becc55f0055604051806107798782611e09565b610994600554611f5f565b806005556109a68261018051856120e2565b35906109b98361016051610140516120e2565b3591600c8310156101b5576109ec906109de6040519384926020840196429188611fbb565b03601f198101835282611d04565b519020908160005260006020526040600020610a0c8261018051866120e2565b358155610a1a8289876120e2565b356001820155610a318261016051610140516120e2565b3590600c8210156101b55780610a4d6005600693019384611fe4565b82547fffffffffffffffffffffff0000000000000000000000000000000000000000ff163360081b74ffffffffffffffffffffffffffffffffffffffff0016178355610a9f846101205160a0516120e2565b356002820155610b22610ab88560e051610100516120e2565b359360039485840155610ad08660805160c0516120e2565b35600484015580547fffffffffff000000000000ffffffffffffffffffffffffffffffffffffffffff16428b1660a81b7affffffffffff00000000000000000000000000000000000000000016179055565b018643167fffffffffffffffffffffffffffffffffffffffffffffffffffff000000000000825416179055610b5b8261018051866120e2565b356000526001602052610b72836040600020611ffd565b610b818260805160c0516120e2565b3590610b918361018051876120e2565b3560005260205260406000205581610ba982886120f2565b52610bb5600454611f5f565b600455610bc68161018051856120e2565b35610bd88261016051610140516120e2565b3590600c8210156101b55760408051338152426020820152600195917f4272bd012bf38ee40734003d73abac15b4c1525a8b926dd64024b78e62ea697691a40161094d565b60646040517f08c379a000000000000000000000000000000000000000000000000000000000815260206004820152601e60248201527f417564697452656769737472793a20626174636820746f6f206c6172676500006044820152fd5b60846040517f08c379a0000000000000000000000000000000000000000000000000000000008152602060048201526024808201527f417564697452656769737472793a206172726179206c656e677468206d69736d60448201527f61746368000000000000000000000000000000000000000000000000000000006064820152fd5b506080516101805114610925565b5060e051610180511461091f565b50610120516101805114610919565b50610160516101805114610913565b346101b5576020806003193601126101b5576004356000526001806020526040600020916040519182602085549182815201946000526020600020926000905b828210610d9b5761077986610d8f818a0382611d04565b60405191829182611e09565b84548752958601959383019390830190610d78565b346101b55760006003193601126101b5576040516040810181811067ffffffffffffffff821117610e5a57604052600581526020907f352e302e30000000000000000000000000000000000000000000000000000000602082015260405180926020825282519283602084015260005b848110610e4357505050601f19601f836000604080968601015201168101030190f35b818101830151868201604001528593508201610e20565b7f4e487b7100000000000000000000000000000000000000000000000000000000600052604160045260246000fd5b346101b55760206003193601126101b55760043560005260036020526020604060002054604051908152f35b346101b55760406003193601126101b5576024356004356000526001602052604060002080548210156101b557602091610eee91611d43565b90546040519160031b1c8152f35b346101b55760006003193601126101b557602060405160008152f35b346101b55760206003193601126101b557610f31612054565b5060043560005260006020526040600020604051610f4e81611ce7565b8154815260018201546020820152600282015460408201526003820154606082015260048201546080820152600582015460ff8116600c8110156103fa576101209360069160a085015273ffffffffffffffffffffffffffffffffffffffff8360081c1660c085015265ffffffffffff809360a81c1660e0850152015416610100820152610fdf6040518092611d8a565bf35b346101b55760406003193601126101b557610ffa611ca1565b6004356000527f02dd7bc7dec4dceedda775e58dd541e08a116c6c53815c0bd028192f7b62680060205273ffffffffffffffffffffffffffffffffffffffff60406000209116600052602052602060ff604060002054166040519015158152f35b346101b55760206003193601126101b55760043560005260016020526020604060002054604051908152f35b346101b55760006003193601126101b5576110a0612106565b6110a8612734565b7fcd5ed15c6e187e77e9aee88184c21f4f2182ab5827cb3b7e07fbedcd63f03300600160ff198254161790557f62e78cea01bee320cd4e420270b5ea74000d11b0c9f74754ebdbfc544b05a2586020604051338152a1005b346101b55760006003193601126101b5576020600454604051908152f35b346101b55760006003193601126101b55760206040517f566c814873eed56a69b28c40ab27cc2cb150d74068bae3e884ccd44f8de60f8a8152f35b346101b55760006003193601126101b55760206040517fa49807205ce4d355092ef5a8a18f56e8913cf4a201fbe287825b095693c217758152f35b346101b55760006003193601126101b557602060ff7fcd5ed15c6e187e77e9aee88184c21f4f2182ab5827cb3b7e07fbedcd63f0330054166040519015158152f35b346101b55760406003193601126101b5576111ef611cc4565b73ffffffffffffffffffffffffffffffffffffffff60243591166000526002602052604060002080548210156101b557602091610eee91611d43565b346101b55760c06003193601126101b557600435602435604435600c8110156101b55760a4359261125a612199565b6112626126da565b61126a612734565b80156114b357821561142f57602093611284600554611f5f565b8060055560405161129f816109de8982019442898988611fbb565b5190209384600052600086526040600020908382556001820155600660058201916112ca8684611fe4565b82547fffffffffffffffffffffff0000000000000000000000000000000000000000ff163360081b74ffffffffffffffffffffffffffffffffffffffff0016178355606435600282015560843560038201556004810184905582547fffffffffff000000000000ffffffffffffffffffffffffffffffffffffffffff164260a81b7affffffffffff000000000000000000000000000000000000000000161790925565ffffffffffff91019043167fffffffffffffffffffffffffffffffffffffffffffffffffffff00000000000082541617905581600052600185526113b5846040600020611ffd565b81600052600385526040600020556113ce600454611f5f565b6004556040805133815242602082015284917f4272bd012bf38ee40734003d73abac15b4c1525a8b926dd64024b78e62ea697691a460017f9b779b17422d0df92223018b32b4d1fa46e071723d6817e2486d003becc55f0055604051908152f35b60846040517f08c379a000000000000000000000000000000000000000000000000000000000815260206004820152602260248201527f417564697452656769737472793a20656d707479207265736f7572636520747960448201527f70650000000000000000000000000000000000000000000000000000000000006064820152fd5b60646040517f08c379a000000000000000000000000000000000000000000000000000000000815260206004820152602060248201527f417564697452656769737472793a20656d707479207265736f757263652049446044820152fd5b346101b55760006003193601126101b55773ffffffffffffffffffffffffffffffffffffffff7f00000000000000000000000000000000000000000000000000000000000000001630036115895760206040517f360894a13ba1a3210667c828492db98dca3e2076cc3735a920a3ca505d382bbc8152f35b60046040517fe07c8dba000000000000000000000000000000000000000000000000000000008152fd5b60406003193601126101b5576115c7611cc4565b602490813567ffffffffffffffff81116101b557366023820112156101b55780600401356115f481611d27565b926116026040519485611d04565b81845260209182850193368783830101116101b557816000928886930187378601015273ffffffffffffffffffffffffffffffffffffffff807f000000000000000000000000000000000000000000000000000000000000000016803014908115611906575b50611589577f189ab7a9244df0848122154315af71fe140f3db0fe014031783b0946b8c9d2e3806000527f02dd7bc7dec4dceedda775e58dd541e08a116c6c53815c0bd028192f7b6268008452604060002033600052845260ff60406000205416156118d057508116936040517f52d1902d0000000000000000000000000000000000000000000000000000000081528381600481895afa600091816118a1575b5061173e578686604051907f4c9c8ce30000000000000000000000000000000000000000000000000000000082526004820152fd5b8590877f360894a13ba1a3210667c828492db98dca3e2076cc3735a920a3ca505d382bbc918281036118735750843b156118445750817fffffffffffffffffffffffff0000000000000000000000000000000000000000825416179055604051907fbc7cd75a20ee27fd9adebab32041f755214dbc6bffa90cc0225b39da2e5c2d3b600080a2815115611810575060006102539481925190845af4903d15611807573d6117ea81611d27565b906117f86040519283611d04565b8152600081943d92013e6127e2565b606092506127e2565b93505050503461181c57005b807fb398979f0000000000000000000000000000000000000000000000000000000060049252fd5b82604051907f4c9c8ce30000000000000000000000000000000000000000000000000000000082526004820152fd5b604051907faa1d49a40000000000000000000000000000000000000000000000000000000082526004820152fd5b9091508481813d83116118c9575b6118b98183611d04565b810103126101b557519088611709565b503d6118af565b86604491604051917fe2517d3f000000000000000000000000000000000000000000000000000000008352336004840152820152fd5b9050817f360894a13ba1a3210667c828492db98dca3e2076cc3735a920a3ca505d382bbc5416141587611668565b346101b55760006003193601126101b55761194d612106565b7fcd5ed15c6e187e77e9aee88184c21f4f2182ab5827cb3b7e07fbedcd63f03300805460ff8116156119ab5760ff191690557f5db9ee0a495bf2e6ff9c91a7834c1ba4fdd244a5e8aa4e537bd38aeae4b073aa6020604051338152a1005b60046040517f8dfc202b000000000000000000000000000000000000000000000000000000008152fd5b346101b55760406003193601126101b5576119ee611ca1565b3373ffffffffffffffffffffffffffffffffffffffff821603611a175761025390600435612637565b60046040517f6697b232000000000000000000000000000000000000000000000000000000008152fd5b346101b55760406003193601126101b557610253600435611a60611ca1565b90806000527f02dd7bc7dec4dceedda775e58dd541e08a116c6c53815c0bd028192f7b626800602052611a9a6001604060002001546121f5565b612590565b346101b55760206003193601126101b5576004356000526000602052610120604060002080549060066001820154916002810154600382015460048301549160058401549365ffffffffffff958691015416956040519788526020880152604087015260608601526080850152611b1c60a0850160ff8316611c94565b73ffffffffffffffffffffffffffffffffffffffff8160081c1660c085015260a81c1660e0830152610100820152f35b346101b55760206003193601126101b5576004356000527f02dd7bc7dec4dceedda775e58dd541e08a116c6c53815c0bd028192f7b6268006020526020600160406000200154604051908152f35b346101b55760206003193601126101b5576040611bb8600435611e76565b825191151582526020820152f35b346101b55760406003193601126101b5576004356000526003602052602060243560406000205414604051908152f35b346101b55760206003193601126101b557600435907fffffffff0000000000000000000000000000000000000000000000000000000082168092036101b557817f7965db0b0000000000000000000000000000000000000000000000000000000060209314908115611c6a575b5015158152f35b7f01ffc9a70000000000000000000000000000000000000000000000000000000091501483611c63565b90600c8210156103fa5752565b6024359073ffffffffffffffffffffffffffffffffffffffff821682036101b557565b6004359073ffffffffffffffffffffffffffffffffffffffff821682036101b557565b610120810190811067ffffffffffffffff821117610e5a57604052565b90601f601f19910116810190811067ffffffffffffffff821117610e5a57604052565b67ffffffffffffffff8111610e5a57601f01601f191660200190565b8054821015611d5b5760005260206000200190600090565b7f4e487b7100000000000000000000000000000000000000000000000000000000600052603260045260246000fd5b8051825260208101516020830152604081015160408301526060810151606083015260808101516080830152611dc860a082015160a0840190611c94565b73ffffffffffffffffffffffffffffffffffffffff60c08201511660c083015260e081015165ffffffffffff80911660e08401526101008092015116910152565b602090602060408183019282815285518094520193019160005b828110611e31575050505090565b835185529381019392810192600101611e23565b9181601f840112156101b55782359167ffffffffffffffff83116101b5576020808501948460051b0101116101b557565b90600091825260016020600160205260409060408520908154928315611f545760015b848110611eac5750505050505060019190565b611eb68185611d43565b9054600391821b1c8952888452828920907fffffffffffffffffffffffffffffffffffffffffffffffffffffffffffffffff8301838111611f275790611efe60049288611d43565b905490821b1c8b528a8652848b2092015491015403611f1e578501611e99565b95945050505050565b60248b7f4e487b710000000000000000000000000000000000000000000000000000000081526011600452fd5b505050505060019190565b7fffffffffffffffffffffffffffffffffffffffffffffffffffffffffffffffff8114611f8c5760010190565b7f4e487b7100000000000000000000000000000000000000000000000000000000600052601160045260246000fd5b92909391938352600c8410156103fa5760619360f81b6020840152602183015260418201520190565b90600c8110156103fa5760ff60ff198354169116179055565b805468010000000000000000811015610e5a5761201f91600182018155611d43565b7fffffffffffffffffffffffffffffffffffffffffffffffffffffffffffffffff829392549160031b92831b921b1916179055565b6040519061206182611ce7565b816101006000918281528260208201528260408201528260608201528260808201528260a08201528260c08201528260e08201520152565b67ffffffffffffffff8111610e5a5760051b60200190565b906120bb82612099565b6120c86040519182611d04565b828152601f196120d88294612099565b0190602036910137565b9190811015611d5b5760051b0190565b8051821015611d5b5760209160051b010190565b3360009081527fb16e88c42fd4e48df2dd6a2eabd6bc9aec654ec170056b470819f8892cc6431c60205260409020547fa49807205ce4d355092ef5a8a18f56e8913cf4a201fbe287825b095693c217759060ff16156121625750565b604490604051907fe2517d3f0000000000000000000000000000000000000000000000000000000082523360048301526024820152fd5b3360009081527f8501b06e127501fd7faf7aa936d853903f1493fb57b2af19e571630f220a9cb660205260409020547f566c814873eed56a69b28c40ab27cc2cb150d74068bae3e884ccd44f8de60f8a9060ff16156121625750565b806000527f02dd7bc7dec4dceedda775e58dd541e08a116c6c53815c0bd028192f7b62680060205260406000203360005260205260ff60406000205416156121625750565b73ffffffffffffffffffffffffffffffffffffffff1660008181527fb7db2dd08fcb62d0c9e08c51941cae53c267786a0b75803fb7960902fc8ef97d60205260408120549091907f02dd7bc7dec4dceedda775e58dd541e08a116c6c53815c0bd028192f7b6268009060ff166122f4578280526020526040822081835260205260408220600160ff1982541617905533917f2f8788117e7eff1d82e926ec794901d17c78024a50270940304540a733656f0d8180a4600190565b505090565b73ffffffffffffffffffffffffffffffffffffffff1660008181527fb16e88c42fd4e48df2dd6a2eabd6bc9aec654ec170056b470819f8892cc6431c60205260408120549091907fa49807205ce4d355092ef5a8a18f56e8913cf4a201fbe287825b095693c21775907f02dd7bc7dec4dceedda775e58dd541e08a116c6c53815c0bd028192f7b6268009060ff166123d4578184526020526040832082845260205260408320600160ff198254161790557f2f8788117e7eff1d82e926ec794901d17c78024a50270940304540a733656f0d339380a4600190565b50505090565b73ffffffffffffffffffffffffffffffffffffffff1660008181527f8501b06e127501fd7faf7aa936d853903f1493fb57b2af19e571630f220a9cb660205260408120549091907f566c814873eed56a69b28c40ab27cc2cb150d74068bae3e884ccd44f8de60f8a907f02dd7bc7dec4dceedda775e58dd541e08a116c6c53815c0bd028192f7b6268009060ff166123d4578184526020526040832082845260205260408320600160ff198254161790557f2f8788117e7eff1d82e926ec794901d17c78024a50270940304540a733656f0d339380a4600190565b73ffffffffffffffffffffffffffffffffffffffff1660008181527fab71e3f32666744d246edff3f96e4bdafee2e9867098cdd118a979a7464786a860205260408120549091907f189ab7a9244df0848122154315af71fe140f3db0fe014031783b0946b8c9d2e3907f02dd7bc7dec4dceedda775e58dd541e08a116c6c53815c0bd028192f7b6268009060ff166123d4578184526020526040832082845260205260408320600160ff198254161790557f2f8788117e7eff1d82e926ec794901d17c78024a50270940304540a733656f0d339380a4600190565b906000918083527f02dd7bc7dec4dceedda775e58dd541e08a116c6c53815c0bd028192f7b6268008060205273ffffffffffffffffffffffffffffffffffffffff6040852093169283855260205260ff604085205416156000146123d4578184526020526040832082845260205260408320600160ff198254161790557f2f8788117e7eff1d82e926ec794901d17c78024a50270940304540a733656f0d339380a4600190565b906000918083527f02dd7bc7dec4dceedda775e58dd541e08a116c6c53815c0bd028192f7b6268008060205273ffffffffffffffffffffffffffffffffffffffff6040852093169283855260205260ff6040852054166000146123d457818452602052604083208284526020526040832060ff1981541690557ff6391f5c32d9c69d2a47ea670b442974b53935d1edc7fd64eb21e047a839171b339380a4600190565b7f9b779b17422d0df92223018b32b4d1fa46e071723d6817e2486d003becc55f00600281541461270a5760029055565b60046040517f3ee5aeb5000000000000000000000000000000000000000000000000000000008152fd5b60ff7fcd5ed15c6e187e77e9aee88184c21f4f2182ab5827cb3b7e07fbedcd63f03300541661275f57565b60046040517fd93c0665000000000000000000000000000000000000000000000000000000008152fd5b60ff7ff0c57e16840df040f15088dc2f81fe391c3923bec73e23a9662efc9c229c6a005460401c16156127b857565b60046040517fd7e6bcf8000000000000000000000000000000000000000000000000000000008152fd5b9061282157508051156127f757805190602001fd5b60046040517f1425ea42000000000000000000000000000000000000000000000000000000008152fd5b81511580612879575b612832575090565b60249073ffffffffffffffffffffffffffffffffffffffff604051917f9996b315000000000000000000000000000000000000000000000000000000008352166004820152fd5b50803b1561282a56fea26469706673582212204b1410e79d23a1732280e5096aed3e5e21a514827d95bd8c7f41bb30df81405d64736f6c63430008160033",
  "linkReferences": {},
  "deployedLinkReferences": {}
}