{
  "_format": "hh-sol-artifact-1",
  "contractName": "Disbursement",
  "sourceName": "contracts/Disbursement.sol",
  "abi": [
    {
      "inputs": [],
      "stateMutability": "nonpayable",
      "type": "constructor"
    },
    {
      "inputs": [],
      "name": "AccessControlBadConfirmation",
      "type": "error"
    },
    {
      "inputs": [
        {
          "internalType": "address",
          "name": "account",
          "type": "address"
        },
        {
          "internalType": "bytes32",
          "name": "neededRole",
          "type": "bytes32"
        }
      ],
      "name": "AccessControlUnauthorizedAccount",
      "type": "error"
    },
    {
      "inputs": [
        {
          "internalType": "address",
          "name": "target",
          "type": "address"
        }
      ],
      "name": "AddressEmptyCode",
      "type": "error"
    },
    {
      "inputs": [
        {
          "internalType": "bytes32",
          "name": "loanId",
          "type": "bytes32"
        }
      ],
      "name": "AlreadyDisbursed",
      "type": "error"
    },
    {
      "inputs": [
        {
          "internalType": "bytes32",
          "name": "disbursementId",
          "type": "bytes32"
        }
      ],
      "name": "DisbursementNotFound",
      "type": "error"
    },
    {
      "inputs": [
        {
          "internalType": "bytes32",
          "name": "referenceHash",
          "type": "bytes32"
        }
      ],
      "name": "DuplicateReference",
      "type": "error"
    },
    {
      "inputs": [
        {
          "internalType": "address",
          "name": "implementation",
          "type": "address"
        }
      ],
      "name": "ERC1967InvalidImplementation",
      "type": "error"
    },
    {
      "inputs": [],
      "name": "ERC1967NonPayable",
      "type": "error"
    },
    {
      "inputs": [],
      "name": "EnforcedPause",
      "type": "error"
    },
    {
      "inputs": [],
      "name": "ExpectedPause",
      "type": "error"
    },
    {
      "inputs": [],
      "name": "FailedInnerCall",
      "type": "error"
    },
    {
      "inputs": [
        {
          "internalType": "bytes32",
          "name": "disbursementId",
          "type": "bytes32"
        },
        {
          "internalType": "enum Disbursement.DisbursementStatus",
          "name": "current",
          "type": "uint8"
        },
        {
          "internalType": "enum Disbursement.DisbursementStatus",
          "name": "expected",
          "type": "uint8"
        }
      ],
      "name": "InvalidDisbursementStatus",
      "type": "error"
    },
    {
      "inputs": [],
      "name": "InvalidInitialization",
      "type": "error"
    },
    {
      "inputs": [
        {
          "internalType": "bytes32",
          "name": "loanId",
          "type": "bytes32"
        }
      ],
      "name": "LoanNotApproved",
      "type": "error"
    },
    {
      "inputs": [],
      "name": "NotInitializing",
      "type": "error"
    },
    {
      "inputs": [],
      "name": "ReentrancyGuardReentrantCall",
      "type": "error"
    },
    {
      "inputs": [],
      "name": "UUPSUnauthorizedCallContext",
      "type": "error"
    },
    {
      "inputs": [
        {
          "internalType": "bytes32",
          "name": "slot",
          "type": "bytes32"
        }
      ],
      "name": "UUPSUnsupportedProxiableUUID",
      "type": "error"
    },
    {
      "anonymous": false,
      "inputs": [
        {
          "indexed": true,
          "internalType": "bytes32",
          "name": "disbursementId",
          "type": "bytes32"
        },
        {
          "indexed": true,
          "internalType": "bytes32",
          "name": "loanId",
          "type": "bytes32"
        },
        {
          "indexed": false,
          "internalType": "bytes32",
          "name": "referenceHash",
          "type": "bytes32"
        },
        {
          "indexed": false,
          "internalType": "address",
          "name": "processedBy",
          "type": "address"
        },
        {
          "indexed": false,
          "internalType": "uint256",
          "name": "timestamp",
          "type": "uint256"
        }
      ],
      "name": "DisbursementCompleted",
      "type": "event"
    },
    {
      "anonymous": false,
      "inputs": [
        {
          "indexed": true,
          "internalType": "bytes32",
          "name": "disbursementId",
          "type": "bytes32"
        },
        {
          "indexed": true,
          "internalType": "bytes32",
          "name": "loanId",
          "type": "bytes32"
        },
        {
          "indexed": true,
          "internalType": "address",
          "name": "borrower",
          "type": "address"
        },
        {
          "indexed": false,
          "internalType": "uint256",
          "name": "amount",
          "type": "uint256"
        },
        {
          "indexed": false,
          "internalType": "enum Disbursement.DisbursementMethod",
          "name": "method",
          "type": "uint8"
        },
        {
          "indexed": false,
          "internalType": "address",
          "name": "initiatedBy",
          "type": "address"
        },
        {
          "indexed": false,
          "internalType": "uint256",
          "name": "timestamp",
          "type": "uint256"
        }
      ],
      "name": "DisbursementInitiated",
      "type": "event"
    },
    {
      "anonymous": false,
      "inputs": [
        {
          "indexed": false,
          "internalType": "uint64",
          "name": "version",
          "type": "uint64"
        }
      ],
      "name": "Initialized",
      "type": "event"
    },
    {
      "anonymous": false,
      "inputs": [
        {
          "indexed": false,
          "internalType": "address",
          "name": "account",
          "type": "address"
        }
      ],
      "name": "Paused",
      "type": "event"
    },
    {
      "anonymous": false,
      "inputs": [
        {
          "indexed": true,
          "internalType": "bytes32",
          "name": "role",
          "type": "bytes32"
        },
        {
          "indexed": true,
          "internalType": "bytes32",
          "name": "previousAdminRole",
          "type": "bytes32"
        },
        {
          "indexed": true,
          "internalType": "bytes32",
          "name": "newAdminRole",
          "type": "bytes32"
        }
      ],
      "name": "RoleAdminChanged",
      "type": "event"
    },
    {
      "anonymous": false,
      "inputs": [
        {
          "indexed": true,
          "internalType": "bytes32",
          "name": "role",
          "type": "bytes32"
        },
        {
          "indexed": true,
          "internalType": "address",
          "name": "account",
          "type": "address"
        },
        {
          "indexed": true,
          "internalType": "address",
          "name": "sender",
          "type": "address"
        }
      ],
      "name": "RoleGranted",
      "type": "event"
    },
    {
      "anonymous": false,
      "inputs": [
        {
          "indexed": true,
          "internalType": "bytes32",
          "name": "role",
          "type": "bytes32"
        },
        {
          "indexed": true,
          "internalType": "address",
          "name": "account",
          "type": "address"
        },
        {
          "indexed": true,
          "internalType": "address",
          "name": "sender",
          "type": "address"
        }
      ],
      "name": "RoleRevoked",
      "type": "event"
    },
    {
      "anonymous": false,
      "inputs": [
        {
          "indexed": false,
          "internalType": "address",
          "name": "account",
          "type": "address"
        }
      ],
      "name": "Unpaused",
      "type": "event"
    },
    {
      "anonymous": false,
      "inputs": [
        {
          "indexed": true,
          "internalType": "address",
          "name": "implementation",
          "type": "address"
        }
      ],
      "name": "Upgraded",
      "type": "event"
    },
    {
      "inputs": [],
      "name": "ADMIN_ROLE",
      "outputs": [
        {
          "internalType": "bytes32",
          "name": "",
          "type": "bytes32"
        }
      ],
      "stateMutability": "view",
      "type": "function"
    },
    {
      "inputs": [],
      "name": "DEFAULT_ADMIN_ROLE",
      "outputs": [
        {
          "internalType": "bytes32",
          "name": "",
          "type": "bytes32"
        }
      ],
      "stateMutability": "view",
      "type": "function"
    },
    {
      "inputs": [],
      "name": "LOAN_OFFICER_ROLE",
      "outputs": [
        {
          "internalType": "bytes32",
          "name": "",
          "type": "bytes32"
        }
      ],
      "stateMutability": "view",
      "type": "function"
    },
    {
      "inputs": [],
      "name": "SYSTEM_ROLE",
      "outputs": [
        {
          "internalType": "bytes32",
          "name": "",
          "type": "bytes32"
        }
      ],
      "stateMutability": "view",
      "type": "function"
    },
    {
      "inputs": [],
      "name": "UPGRADER_ROLE",
      "outputs": [
        {
          "internalType": "bytes32",
          "name": "",
          "type": "bytes32"
        }
      ],
      "stateMutability": "view",
      "type": "function"
    },
    {
      "inputs": [],
      "name": "UPGRADE_INTERFACE_VERSION",
      "outputs": [
        {
          "internalType": "string",
          "name": "",
          "type": "string"
        }
      ],
      "stateMutability": "view",
      "type": "function"
    },
    {
      "inputs": [],
      "name": "VERSION",
      "outputs": [
        {
          "internalType": "uint256",
          "name": "",
          "type": "uint256"
        }
      ],
      "stateMutability": "view",
      "type": "function"
    },
    {
      "inputs": [],
      "name": "auditRegistry",
      "outputs": [
        {
          "internalType": "contract IAuditRegistry",
          "name": "",
          "type": "address"
        }
      ],
      "stateMutability": "view",
      "type": "function"
    },
    {
      "inputs": [
        {
          "internalType": "bytes32",
          "name": "disbursementId",
          "type": "bytes32"
        },
        {
          "internalType": "bytes32",
          "name": "referenceHash",
          "type": "bytes32"
        }
      ],
      "name": "completeDisbursement",
      "outputs": [
        {
          "internalType": "bool",
          "name": "",
          "type": "bool"
        }
      ],
      "stateMutability": "nonpayable",
      "type": "function"
    },
    {
      "inputs": [
        {
          "internalType": "bytes32",
          "name": "",
          "type": "bytes32"
        }
      ],
      "name": "disbursements",
      "outputs": [
        {
          "internalType": "bytes32",
          "name": "disbursementId",
          "type": "bytes32"
        },
        {
          "internalType": "bytes32",
          "name": "loanId",
          "type": "bytes32"
        },
        {
          "internalType": "address",
          "name": "borrower",
          "type": "address"
        },
        {
          "internalType": "uint256",
          "name": "amount",
          "type": "uint256"
        },
        {
          "internalType": "enum Disbursement.DisbursementMethod",
          "name": "method",
          "type": "uint8"
        },
        {
          "internalType": "bytes32",
          "name": "referenceHash",
          "type": "bytes32"
        },
        {
          "internalType": "enum Disbursement.DisbursementStatus",
          "name": "status",
          "type": "uint8"
        },
        {
          "internalType": "address",
          "name": "processedBy",
          "type": "address"
        },
        {
          "internalType": "uint256",
          "name": "initiatedAt",
          "type": "uint256"
        },
        {
          "internalType": "uint256",
          "name": "processedAt",
          "type": "uint256"
        }
      ],
      "stateMutability": "view",
      "type": "function"
    },
    {
      "inputs": [
        {
          "internalType": "bytes32",
          "name": "disbursementId",
          "type": "bytes32"
        }
      ],
      "name": "getDisbursement",
      "outputs": [
        {
          "components": [
            {
              "internalType": "bytes32",
              "name": "disbursementId",
              "type": "bytes32"
            },
            {
              "internalType": "bytes32",
              "name": "loanId",
              "type": "bytes32"
            },
            {
              "internalType": "address",
              "name": "borrower",
              "type": "address"
            },
            {
              "internalType": "uint256",
              "name": "amount",
              "type": "uint256"
            },
            {
              "internalType": "enum Disbursement.DisbursementMethod",
              "name": "method",
              "type": "uint8"
            },
            {
              "internalType": "bytes32",
              "name": "referenceHash",
              "type": "bytes32"
            },
            {
              "internalType": "enum Disbursement.DisbursementStatus",
              "name": "status",
              "type": "uint8"
            },
            {
              "internalType": "address",
              "name": "processedBy",
              "type": "address"
            },
            {
              "internalType": "uint256",
              "name": "initiatedAt",
              "type": "uint256"
            },
            {
              "internalType": "uint256",
              "name": "processedAt",
              "type": "uint256"
            }
          ],
          "internalType": "struct Disbursement.DisbursementRecord",
          "name": "",
          "type": "tuple"
        }
      ],
      "stateMutability": "view",
      "type": "function"
    },
    {
      "inputs": [
        {
          "internalType": "bytes32",
          "name": "loanId",
          "type": "bytes32"
        }
      ],
      "name": "getDisbursementByLoan",
      "outputs": [
        {
          "components": [
            {
              "internalType": "bytes32",
              "name": "disbursementId",
              "type": "bytes32"
            },
            {
              "internalType": "bytes32",
              "name": "loanId",
              "type": "bytes32"
            },
            {
              "internalType": "address",
              "name": "borrower",
              "type": "address"
            },
            {
              "internalType": "uint256",
              "name": "amount",
              "type": "uint256"
            },
            {
              "internalType": "enum Disbursement.DisbursementMethod",
              "name": "method",
              "type": "uint8"
            },
            {
              "internalType": "bytes32",
              "name": "referenceHash",
              "type": "bytes32"
            },
            {
              "internalType": "enum Disbursement.DisbursementStatus",
              "name": "status",
              "type": "uint8"
            },
            {
              "internalType": "address",
              "name": "processedBy",
              "type": "address"
            },
            {
              "internalType": "uint256",
              "name": "initiatedAt",
              "type": "uint256"
            },
            {
              "internalType": "uint256",
              "name": "processedAt",
              "type": "uint256"
            }
          ],
          "internalType": "struct Disbursement.DisbursementRecord",
          "name": "",
          "type": "tuple"
        }
      ],
      "stateMutability": "view",
      "type": "function"
    },
    {
      "inputs": [
        {
          "internalType": "bytes32",
          "name": "role",
          "type": "bytes32"
        }
      ],
      "name": "getRoleAdmin",
      "outputs": [
        {
          "internalType": "bytes32",
          "name": "",
          "type": "bytes32"
        }
      ],
      "stateMutability": "view",
      "type": "function"
    },
    {
      "inputs": [],
      "name": "getStats",
      "outputs": [
        {
          "internalType": "uint256",
          "name": "_totalDisbursements",
          "type": "uint256"
        },
        {
          "internalType": "uint256",
          "name": "_totalDisbursedAmount",
          "type": "uint256"
        }
      ],
      "stateMutability": "view",
      "type": "function"
    },
    {
      "inputs": [
        {
          "internalType": "bytes32",
          "name": "role",
          "type": "bytes32"
        },
        {
          "internalType": "address",
          "name": "account",
          "type": "address"
        }
      ],
      "name": "grantRole",
      "outputs": [],
      "stateMutability": "nonpayable",
      "type": "function"
    },
    {
      "inputs": [
        {
          "internalType": "bytes32",
          "name": "role",
          "type": "bytes32"
        },
        {
          "internalType": "address",
          "name": "account",
          "type": "address"
        }
      ],
      "name": "hasRole",
      "outputs": [
        {
          "internalType": "bool",
          "name": "",
          "type": "bool"
        }
      ],
      "stateMutability": "view",
      "type": "function"
    },
    {
      "inputs": [
        {
          "internalType": "address",
          "name": "_loanCore",
          "type": "address"
        },
        {
          "internalType": "address",
          "name": "_auditRegistry",
          "type": "address"
        },
        {
          "internalType": "address",
          "name": "admin",
          "type": "address"
        }
      ],
      "name": "initialize",
      "outputs": [],
      "stateMutability": "nonpayable",
      "type": "function"
    },
    {
      "inputs": [
        {
          "internalType": "bytes32",
          "name": "loanId",
          "type": "bytes32"
        },
        {
          "internalType": "uint256",
          "name": "amount",
          "type": "uint256"
        },
        {
          "internalType": "enum Disbursement.DisbursementMethod",
          "name": "method",
          "type": "uint8"
        }
      ],
      "name": "initiateDisbursement",
      "outputs": [
        {
          "internalType": "bytes32",
          "name": "disbursementId",
          "type": "bytes32"
        }
      ],
      "stateMutability": "nonpayable",
      "type": "function"
    },
    {
      "inputs": [
        {
          "internalType": "bytes32",
          "name": "referenceHash",
          "type": "bytes32"
        }
      ],
      "name": "isReferenceUsed",
      "outputs": [
        {
          "internalType": "bool",
          "name": "",
          "type": "bool"
        }
      ],
      "stateMutability": "view",
      "type": "function"
    },
    {
      "inputs": [],
      "name": "loanCore",
      "outputs": [
        {
          "internalType": "contract ILoanCore",
          "name": "",
          "type": "address"
        }
      ],
      "stateMutability": "view",
      "type": "function"
    },
    {
      "inputs": [
        {
          "internalType": "bytes32",
          "name": "",
          "type": "bytes32"
        }
      ],
      "name": "loanToDisbursement",
      "outputs": [
        {
          "internalType": "bytes32",
          "name": "",
          "type": "bytes32"
        }
      ],
      "stateMutability": "view",
      "type": "function"
    },
    {
      "inputs": [],
      "name": "pause",
      "outputs": [],
      "stateMutability": "nonpayable",
      "type": "function"
    },
    {
      "inputs": [],
      "name": "paused",
      "outputs": [
        {
          "internalType": "bool",
          "name": "",
          "type": "bool"
        }
      ],
      "stateMutability": "view",
      "type": "function"
    },
    {
      "inputs": [],
      "name": "proxiableUUID",
      "outputs": [
        {
          "internalType": "bytes32",
          "name": "",
          "type": "bytes32"
        }
      ],
      "stateMutability": "view",
      "type": "function"
    },
    {
      "inputs": [
        {
          "internalType": "bytes32",
          "name": "role",
          "type": "bytes32"
        },
        {
          "internalType": "address",
          "name": "callerConfirmation",
          "type": "address"
        }
      ],
      "name": "renounceRole",
      "outputs": [],
      "stateMutability": "nonpayable",
      "type": "function"
    },
    {
      "inputs": [
        {
          "internalType": "bytes32",
          "name": "role",
          "type": "bytes32"
        },
        {
          "internalType": "address",
          "name": "account",
          "type": "address"
        }
      ],
      "name": "revokeRole",
      "outputs": [],
      "stateMutability": "nonpayable",
      "type": "function"
    },
    {
      "inputs": [
        {
          "internalType": "bytes4",
          "name": "interfaceId",
          "type": "bytes4"
        }
      ],
      "name": "supportsInterface",
      "outputs": [
        {
          "internalType": "bool",
          "name": "",
          "type": "bool"
        }
      ],
      "stateMutability": "view",
      "type": "function"
    },
    {
      "inputs": [],
      "name": "totalDisbursedAmount",
      "outputs": [
        {
          "internalType": "uint256",
          "name": "",
          "type": "uint256"
        }
      ],
      "stateMutability": "view",
      "type": "function"
    },
    {
      "inputs": [],
      "name": "totalDisbursements",
      "outputs": [
        {
          "internalType": "uint256",
          "name": "",
          "type": "uint256"
        }
      ],
      "stateMutability": "view",
      "type": "function"
    },
    {
      "inputs": [],
      "name": "unpause",
      "outputs": [],
      "stateMutability": "nonpayable",
      "type": "function"
    },
    {
      "inputs": [
        {
          "internalType": "address",
          "name": "newImplementation",
          "type": "address"
        },
        {
          "internalType": "bytes",
          "name": "data",
          "type": "bytes"
        }
      ],
      "name": "upgradeToAndCall",
      "outputs": [],
      "stateMutability": "payable",
      "type": "function"
    },
    {
      "inputs": [
        {
          "internalType": "bytes32",
          "name": "",
          "type": "bytes32"
        }
      ],
      "name": "usedReferences",
      "outputs": [
        {
          "internalType": "bool",
          "name": "",
          "type": "bool"
        }
      ],
      "stateMutability": "view",
      "type": "function"
    }
  ],
  "bytecode": "0x60a080604052346100cc57306080527ff0c57e16840df040f15088dc2f81fe391c3923bec73e23a9662efc9c229c6a009081549060ff8260401c166100bd57506001600160401b036002600160401b031982821601610078575b6040516126a190816100d28239608051818181610fbd01526115b50152f35b6001600160401b031990911681179091556040519081527fc7f505b2f371ae2175ee4913f4499e1f2633a7b5936321eed1cdaeb6115181d290602090a1388080610059565b63f92ee8a960e01b8152600490fd5b600080fdfe608060408181526004918236101561001657600080fd5b60009260e08435811c92836301ffc9a714611c4057508263248a9ca314611bf557826325999e7f14611bd55782632692f36d14611ba15782632f2ff15d14611b7757826336568abe14611b0a5782633f4ba83a14611a665782634190fba914611a30578263423ef3b814611a105782634b6f7f1c146118d45782634f1ef2861461152b578263522dc3d81461103257826352d1902d14610f925782635c975abb14610f4e578263643a5c7614610e945782636d84078314610ccb57826371cb49c014610e5e57826375071d2a14610e2257826375b238fc14610de65782638456cb5914610d6b57826391d1485414610cf8578263986bf62014610ccb57826399eda73514610c8f578263a217fddf14610c73578263ad3cb1cc14610b84578263b4a091611461059957508163b55a6fb414610571578163c0c53b8b1461026a578163c59d484714610242578163d547741f146101df57508063f72c0d8b146101a55763ffa1ad741461018757600080fd5b346101a157816003193601126101a1576020905160018152f35b5080fd5b50346101a157816003193601126101a157602090517f189ab7a9244df0848122154315af71fe140f3db0fe014031783b0946b8c9d2e38152f35b9190503461023e578060031936011261023e5761023a91356102356001610204611cdf565b938387527f02dd7bc7dec4dceedda775e58dd541e08a116c6c53815c0bd028192f7b626800602052862001546120b9565b612420565b5080f35b8280fd5b8284346102675780600319360112610267575060055460065482519182526020820152f35b80fd5b90503461023e57606060031936011261023e57610285611d07565b9061028e611cdf565b9160443573ffffffffffffffffffffffffffffffffffffffff8082169081830361056d577ff0c57e16840df040f15088dc2f81fe391c3923bec73e23a9662efc9c229c6a009586549560ff878a1c16159567ffffffffffffffff881697881580610566575b6001809a14908161055c575b159081610553575b5061052b579081888a7fffffffffffffffffffffffffffffffffffffffffffffffff0000000000000000889516178c556104f6575b50169384151590816104ea575b816104e0575b5015610483575090610423939291610365612572565b61036d612572565b610375612572565b867f9b779b17422d0df92223018b32b4d1fa46e071723d6817e2486d003becc55f00556103a0612572565b6103a8612572565b7fcd5ed15c6e187e77e9aee88184c21f4f2182ab5827cb3b7e07fbedcd63f0330060ff1981541690556103d9612572565b7fffffffffffffffffffffffff000000000000000000000000000000000000000092838b5416178a551690855416178455610413816120fe565b5061041d816121bd565b5061229e565b5061042c578380f35b7fc7f505b2f371ae2175ee4913f4499e1f2633a7b5936321eed1cdaeb6115181d292827fffffffffffffffffffffffffffffffffffffffffffffff00ffffffffffffffff6020945416905551908152a13880808380f35b60649060208a51917f08c379a0000000000000000000000000000000000000000000000000000000008352820152600c60248201527f5a65726f206164647265737300000000000000000000000000000000000000006044820152fd5b905015153861034f565b83851615159150610349565b7fffffffffffffffffffffffffffffffffffffffffffffff0000000000000000001668010000000000000001178a553861033c565b828b517ff92ee8a9000000000000000000000000000000000000000000000000000000008152fd5b90501538610307565b303b1591506102ff565b50876102f3565b8780fd5b90503461023e57602060031936011261023e5760209282913581526003845220549051908152f35b838534610267576060908160031936011261026757843590602492833590604435946005861015610b80576105cc6124c3565b6105d461251d565b7f4aefb755f364e5a7c1f1f975f9ac9f851f09c4f9751290e57619bbef3de2f99684527f02dd7bc7dec4dceedda775e58dd541e08a116c6c53815c0bd028192f7b62680097602098808a528886203387528a5260ff89872054168015610b43575b61063f9150611f35565b73ffffffffffffffffffffffffffffffffffffffff91868b848854168b519283927f8932f5f700000000000000000000000000000000000000000000000000000000845283015281846102a09485935afa938415610b395788946109b4575b505050610100820151600a811015610926576003036109875786865260038a5288862054806108ae575b50841515806108a0575b156108455750988798996007546106e890611fca565b8060075589518c810191898352428c8301528682015285815261070a81611e52565b51902099868b97928d89809552600290528d838320918583558b6001840155019486865116600283019081547fffffffffffffffffffffffff0000000000000000000000000000000000000000161790558860038301558101805460ff191660ff8d161790556006810180543360081b74ffffffffffffffffffffffffffffffffffffffff0016907fffffffffffffffffffffff0000000000000000000000000000000000000000001617600117905542906007015588815260038d5220556005546107d590611fca565b60055551169486519283528883016107ec91611d2a565b3386830152429082015260807fdda2447582e869b5c9e7f7275d63e9325e450f35ea95822889f65e7d20ff183691a460017f9b779b17422d0df92223018b32b4d1fa46e071723d6817e2486d003becc55f005551908152f35b8a601c6064928c8c51937f08c379a00000000000000000000000000000000000000000000000000000000085528401528201527f44697362757273656d656e743a20696e76616c696420616d6f756e74000000006044820152fd5b5060808201518511156106d2565b865260028a5260ff60068a88200154166003811015908161095c5760028114918215610951575b8215610915575b50506108e8578b6106c8565b8a878a51917f9dca1fad000000000000000000000000000000000000000000000000000000008352820152fd5b909150610926576001148c806108dc565b508560218c7f4e487b7100000000000000000000000000000000000000000000000000000000835252fd5b5080159150876108d5565b828860218f7f4e487b7100000000000000000000000000000000000000000000000000000000835252fd5b8a878a51917fdf856794000000000000000000000000000000000000000000000000000000008352820152fd5b90918093945082813d8311610b32575b6109ce8183611e6e565b8101031261056d578a5192830183811067ffffffffffffffff821117610b06578b52815183526109ff8c8301611f9a565b8c8401528a8201518b84015285820151868401526080820151608084015260a082015160a0840152610a3360c08301611fbb565b60c0840152610a43818301611fbb565b908301526101008082015190600a821015610b025783015261012080820151906003821015610b0257830152610140808201519060ff82168203610b02578301526101608082015190830152610180610a9d818301611f9a565b908301526101a080820151908301526101c080820151908301526101e0808201519083015261020080820151908301526102208082015190830152610240808201519083015261026080820151908301526102808091015190820152908b808061069e565b8880fd5b50838860418f7f4e487b7100000000000000000000000000000000000000000000000000000000835252fd5b503d6109c4565b8b513d8a823e3d90fd5b507fa49807205ce4d355092ef5a8a18f56e8913cf4a201fbe287825b095693c2177586528952878520338652895261063f60ff8987205416610635565b8380fd5b5090503461023e578260031936011261023e578151908282019082821067ffffffffffffffff831117610c4757508252600581526020907f352e302e300000000000000000000000000000000000000000000000000000006020820152825193849260208452825192836020860152825b848110610c3157505050828201840152601f017fffffffffffffffffffffffffffffffffffffffffffffffffffffffffffffffe0168101030190f35b8181018301518882018801528795508201610bf5565b8460416024927f4e487b7100000000000000000000000000000000000000000000000000000000835252fd5b505050346101a157816003193601126101a15751908152602090f35b505050346101a157816003193601126101a157602090517f4aefb755f364e5a7c1f1f975f9ac9f851f09c4f9751290e57619bbef3de2f9968152f35b5090503461023e57602060031936011261023e57816020938260ff93358252855220541690519015158152f35b5090503461023e578160031936011261023e578160209360ff92610d1a611cdf565b903582527f02dd7bc7dec4dceedda775e58dd541e08a116c6c53815c0bd028192f7b626800865273ffffffffffffffffffffffffffffffffffffffff83832091168252855220541690519015158152f35b505050346101a157816003193601126101a15760207f62e78cea01bee320cd4e420270b5ea74000d11b0c9f74754ebdbfc544b05a25891610daa612026565b610db261251d565b7fcd5ed15c6e187e77e9aee88184c21f4f2182ab5827cb3b7e07fbedcd63f03300600160ff1982541617905551338152a180f35b505050346101a157816003193601126101a157602090517fa49807205ce4d355092ef5a8a18f56e8913cf4a201fbe287825b095693c217758152f35b505050346101a157816003193601126101a157602090517f5719df9ef2c4678b547f89e4f5ae410dbf400fc51cf3ded434c55f6adea2c43f8152f35b505050346101a157816003193601126101a15760209073ffffffffffffffffffffffffffffffffffffffff600154169051908152f35b9092915034610b80576020600319360112610b80578161014094843581526002602052209081549360018301549373ffffffffffffffffffffffffffffffffffffffff91610f23836002870154169160ff6003880154918801541690600588015493600689015495600860078b01549a01549a81519c8d5260208d01528b015260608a01526080890190611d2a565b60a0870152610f3860c0870160ff8316611d66565b60081c1690840152610100830152610120820152f35b505050346101a157816003193601126101a15760209060ff7fcd5ed15c6e187e77e9aee88184c21f4f2182ab5827cb3b7e07fbedcd63f03300541690519015158152f35b508284346102675780600319360112610267575073ffffffffffffffffffffffffffffffffffffffff7f000000000000000000000000000000000000000000000000000000000000000016300361100c57602090517f360894a13ba1a3210667c828492db98dca3e2076cc3735a920a3ca505d382bbc8152f35b517fe07c8dba000000000000000000000000000000000000000000000000000000008152fd5b8482853461023e578060031936011261023e57813592602480356110546124c3565b61105c61251d565b8583526020956002875260078585200154156114fd577f4aefb755f364e5a7c1f1f975f9ac9f851f09c4f9751290e57619bbef3de2f99684527f02dd7bc7dec4dceedda775e58dd541e08a116c6c53815c0bd028192f7b626800808852858520338652885260ff868620541680156114c2575b8015611485575b6110e09150611f35565b80845260028752848420956006870196875460ff81169860038a101561145a576001998a8103611418575085156113be57858852838b5260ff898920541661139057600260ff19809316179055846005830155426008830155848752828a528888882091825416179055600381019081546006549081018091116113655760065573ffffffffffffffffffffffffffffffffffffffff90888b8860448d868d54169501948c8654918954965196879586947f608ad5f20000000000000000000000000000000000000000000000000000000086528d8601528401525af1801561135b578c969594928a94928c92611316575b5091879891877f6f227bde6894758804ecdef996b9f4c25fbff20471951a76aa40fdf3f73ac25d606060c49a9b965496848895519188835233908301524290820152a38c54169254908b51918983019384528c83015260608201526060815261123a81611e52565b5190207f64697362757273656d656e7400000000000000000000000000000000000000008a5198899788967f58e7e140000000000000000000000000000000000000000000000000000000008852870152850152600560448501526064840152896084840152600260a48401525af1801561130c579085916112e3575b505050817f9b779b17422d0df92223018b32b4d1fa46e071723d6817e2486d003becc55f005551908152f35b813d8311611305575b6112f68183611e6e565b810103126102675783816112b7565b503d6112ec565b83513d84823e3d90fd5b9294509295979496905081813d8311611354575b6113348183611e6e565b81010312610b0257518015150361056d57928791898c969497958e6111d2565b503d61132a565b8a513d8b823e3d90fd5b86886011867f4e487b7100000000000000000000000000000000000000000000000000000000835252fd5b8684878b51917f9a89aa1d000000000000000000000000000000000000000000000000000000008352820152fd5b6064848c89818d51937f08c379a00000000000000000000000000000000000000000000000000000000085528401528201527f44697362757273656d656e743a207265666572656e63652072657175697265646044820152fd5b848b6114536064938b8a8f51957f64f38b86000000000000000000000000000000000000000000000000000000008752860152840190611d66565b6044820152fd5b86886021867f4e487b7100000000000000000000000000000000000000000000000000000000835252fd5b507f5719df9ef2c4678b547f89e4f5ae410dbf400fc51cf3ded434c55f6adea2c43f8552875284842033855287526110e060ff86862054166110d6565b507fa49807205ce4d355092ef5a8a18f56e8913cf4a201fbe287825b095693c217758552808852858520338652885260ff86862054166110cf565b8591508451917f1067ff87000000000000000000000000000000000000000000000000000000008352820152fd5b8482858060031936011261023e57611541611d07565b90602493843567ffffffffffffffff81116101a157366023820112156101a1578085013561156e81611eaf565b9461157b85519687611e6e565b81865260209182870193368a83830101116118d0578186928b86930187378801015273ffffffffffffffffffffffffffffffffffffffff807f0000000000000000000000000000000000000000000000000000000000000000168030149081156118a2575b5061187a577f189ab7a9244df0848122154315af71fe140f3db0fe014031783b0946b8c9d2e38086527f02dd7bc7dec4dceedda775e58dd541e08a116c6c53815c0bd028192f7b6268008452868620338752845260ff878720541615611845575081169585517f52d1902d00000000000000000000000000000000000000000000000000000000815283818a818b5afa869181611812575b506116ad5750505050505051917f4c9c8ce3000000000000000000000000000000000000000000000000000000008352820152fd5b9088888894938c7f360894a13ba1a3210667c828492db98dca3e2076cc3735a920a3ca505d382bbc918281036117e55750853b156117b8575080547fffffffffffffffffffffffff000000000000000000000000000000000000000016821790558451889392917fbc7cd75a20ee27fd9adebab32041f755214dbc6bffa90cc0225b39da2e5c2d3b8580a282511561178157505061023a9582915190845af4913d15611777573d61176961176082611eaf565b92519283611e6e565b81528581943d92013e6125cb565b50606092506125cb565b95509550505050503461179357505080f35b7fb398979f000000000000000000000000000000000000000000000000000000008152fd5b83838851917f4c9c8ce3000000000000000000000000000000000000000000000000000000008352820152fd5b84908851917faa1d49a4000000000000000000000000000000000000000000000000000000008352820152fd5b9091508481813d831161183e575b61182a8183611e6e565b8101031261183a5751908b611678565b8680fd5b503d611820565b886044918b8951927fe2517d3f0000000000000000000000000000000000000000000000000000000084523390840152820152fd5b8786517fe07c8dba000000000000000000000000000000000000000000000000000000008152fd5b9050817f360894a13ba1a3210667c828492db98dca3e2076cc3735a920a3ca505d382bbc541614158a6115e0565b8580fd5b8385913461023e57602060031936011261023e576118f0611ee9565b5083358352600360205281832054835260026020528183209082519361191585611e06565b825485526001830154602086015273ffffffffffffffffffffffffffffffffffffffff9081600285015416858701526003840154606087015260ff878501541660058110156119e4576080870152600584015460a087015260068401549060ff82169060038210156119b85760c08801829052600883811c8516868a015260078701546101008a01528601546101208901528651806119b48a82611d73565b0390f35b8060218a7f4e487b71000000000000000000000000000000000000000000000000000000006024945252fd5b60248260218a7f4e487b7100000000000000000000000000000000000000000000000000000000835252fd5b505050346101a157816003193601126101a1576020906006549051908152f35b8385913461023e57602060031936011261023e57611a4c611ee9565b508335835260026020528183209082519361191585611e06565b5090503461023e578260031936011261023e57611a81612026565b7fcd5ed15c6e187e77e9aee88184c21f4f2182ab5827cb3b7e07fbedcd63f033009081549060ff821615611ae3575060ff19169055513381527f5db9ee0a495bf2e6ff9c91a7834c1ba4fdd244a5e8aa4e537bd38aeae4b073aa90602090a180f35b83517f8dfc202b000000000000000000000000000000000000000000000000000000008152fd5b508383346101a157806003193601126101a157611b25611cdf565b903373ffffffffffffffffffffffffffffffffffffffff831603611b4f575061023a919235612420565b8390517f6697b232000000000000000000000000000000000000000000000000000000008152fd5b8482853461023e578060031936011261023e5761023a9135611b9c6001610204611cdf565b612379565b505050346101a157816003193601126101a15773ffffffffffffffffffffffffffffffffffffffff60209254169051908152f35b505050346101a157816003193601126101a1576020906005549051908152f35b5090503461023e57602060031936011261023e57816020936001923581527f02dd7bc7dec4dceedda775e58dd541e08a116c6c53815c0bd028192f7b62680085522001549051908152f35b8590833461023e57602060031936011261023e57357fffffffff00000000000000000000000000000000000000000000000000000000811680910361023e57602092507f7965db0b000000000000000000000000000000000000000000000000000000008114908115611cb5575b5015158152f35b7f01ffc9a70000000000000000000000000000000000000000000000000000000091501483611cae565b6024359073ffffffffffffffffffffffffffffffffffffffff82168203611d0257565b600080fd5b6004359073ffffffffffffffffffffffffffffffffffffffff82168203611d0257565b906005821015611d375752565b7f4e487b7100000000000000000000000000000000000000000000000000000000600052602160045260246000fd5b906003821015611d375752565b9190916101408101928051825260208101516020830152604081015173ffffffffffffffffffffffffffffffffffffffff809116604084015260608201516060840152611dc860808301516080850190611d2a565b60a082015160a0840152611de460c083015160c0850190611d66565b60e08201511660e0830152610100808201519083015261012080910151910152565b610140810190811067ffffffffffffffff821117611e2357604052565b7f4e487b7100000000000000000000000000000000000000000000000000000000600052604160045260246000fd5b6080810190811067ffffffffffffffff821117611e2357604052565b90601f7fffffffffffffffffffffffffffffffffffffffffffffffffffffffffffffffe0910116810190811067ffffffffffffffff821117611e2357604052565b67ffffffffffffffff8111611e2357601f017fffffffffffffffffffffffffffffffffffffffffffffffffffffffffffffffe01660200190565b60405190611ef682611e06565b816101206000918281528260208201528260408201528260608201528260808201528260a08201528260c08201528260e0820152826101008201520152565b15611f3c57565b60646040517f08c379a000000000000000000000000000000000000000000000000000000000815260206004820152601c60248201527f44697362757273656d656e743a206e6f7420617574686f72697a6564000000006044820152fd5b519073ffffffffffffffffffffffffffffffffffffffff82168203611d0257565b519061ffff82168203611d0257565b7fffffffffffffffffffffffffffffffffffffffffffffffffffffffffffffffff8114611ff75760010190565b7f4e487b7100000000000000000000000000000000000000000000000000000000600052601160045260246000fd5b3360009081527fb16e88c42fd4e48df2dd6a2eabd6bc9aec654ec170056b470819f8892cc6431c60205260409020547fa49807205ce4d355092ef5a8a18f56e8913cf4a201fbe287825b095693c217759060ff16156120825750565b604490604051907fe2517d3f0000000000000000000000000000000000000000000000000000000082523360048301526024820152fd5b806000527f02dd7bc7dec4dceedda775e58dd541e08a116c6c53815c0bd028192f7b62680060205260406000203360005260205260ff60406000205416156120825750565b73ffffffffffffffffffffffffffffffffffffffff1660008181527fb7db2dd08fcb62d0c9e08c51941cae53c267786a0b75803fb7960902fc8ef97d60205260408120549091907f02dd7bc7dec4dceedda775e58dd541e08a116c6c53815c0bd028192f7b6268009060ff166121b8578280526020526040822081835260205260408220600160ff1982541617905533917f2f8788117e7eff1d82e926ec794901d17c78024a50270940304540a733656f0d8180a4600190565b505090565b73ffffffffffffffffffffffffffffffffffffffff1660008181527fb16e88c42fd4e48df2dd6a2eabd6bc9aec654ec170056b470819f8892cc6431c60205260408120549091907fa49807205ce4d355092ef5a8a18f56e8913cf4a201fbe287825b095693c21775907f02dd7bc7dec4dceedda775e58dd541e08a116c6c53815c0bd028192f7b6268009060ff16612298578184526020526040832082845260205260408320600160ff198254161790557f2f8788117e7eff1d82e926ec794901d17c78024a50270940304540a733656f0d339380a4600190565b50505090565b73ffffffffffffffffffffffffffffffffffffffff1660008181527fab71e3f32666744d246edff3f96e4bdafee2e9867098cdd118a979a7464786a860205260408120549091907f189ab7a9244df0848122154315af71fe140f3db0fe014031783b0946b8c9d2e3907f02dd7bc7dec4dceedda775e58dd541e08a116c6c53815c0bd028192f7b6268009060ff16612298578184526020526040832082845260205260408320600160ff198254161790557f2f8788117e7eff1d82e926ec794901d17c78024a50270940304540a733656f0d339380a4600190565b906000918083527f02dd7bc7dec4dceedda775e58dd541e08a116c6c53815c0bd028192f7b6268008060205273ffffffffffffffffffffffffffffffffffffffff6040852093169283855260205260ff60408520541615600014612298578184526020526040832082845260205260408320600160ff198254161790557f2f8788117e7eff1d82e926ec794901d17c78024a50270940304540a733656f0d339380a4600190565b906000918083527f02dd7bc7dec4dceedda775e58dd541e08a116c6c53815c0bd028192f7b6268008060205273ffffffffffffffffffffffffffffffffffffffff6040852093169283855260205260ff60408520541660001461229857818452602052604083208284526020526040832060ff1981541690557ff6391f5c32d9c69d2a47ea670b442974b53935d1edc7fd64eb21e047a839171b339380a4600190565b7f9b779b17422d0df92223018b32b4d1fa46e071723d6817e2486d003becc55f0060028154146124f35760029055565b60046040517f3ee5aeb5000000000000000000000000000000000000000000000000000000008152fd5b60ff7fcd5ed15c6e187e77e9aee88184c21f4f2182ab5827cb3b7e07fbedcd63f03300541661254857565b60046040517fd93c0665000000000000000000000000000000000000000000000000000000008152fd5b60ff7ff0c57e16840df040f15088dc2f81fe391c3923bec73e23a9662efc9c229c6a005460401c16156125a157565b60046040517fd7e6bcf8000000000000000000000000000000000000000000000000000000008152fd5b9061260a57508051156125e057805190602001fd5b60046040517f1425ea42000000000000000000000000000000000000000000000000000000008152fd5b81511580612662575b61261b575090565b60249073ffffffffffffffffffffffffffffffffffffffff604051917f9996b315000000000000000000000000000000000000000000000000000000008352166004820152fd5b50803b1561261356fea264697066735822122074dead8b0976eb97f41dc14a43ba72ac63606d1cabdc9eddd6e60c23999ca5f064736f6c63430008160033",
  "linkReferences": {},
  "deployedLinkReferences": {}
}