{
  "_format": "hh-sol-artifact-1",
  "contractName": "Repayment",
  "sourceName": "contracts/Repayment.sol",
  "abi": [
    {
      "inputs": [],
      "stateMutability": "nonpayable",
      "type": "constructor"
    },
    {
      "inputs": [],
      "name": "AccessControlBadConfirmation",
      "type": "error"
    },
    {
      "inputs": [
        {
          "internalType": "address",
          "name": "account",
          "type": "address"
        },
        {
          "internalType": "bytes32",
          "name": "neededRole",
          "type": "bytes32"
        }
      ],
      "name": "AccessControlUnauthorizedAccount",
      "type": "error"
    },
    {
      "inputs": [
        {
          "internalType": "address",
          "name": "target",
          "type": "address"
        }
      ],
      "name": "AddressEmptyCode",
      "type": "error"
    },
    {
      "inputs": [
        {
          "internalType": "bytes32",
          "name": "referenceHash",
          "type": "bytes32"
        }
      ],
      "name": "DuplicatePaymentReference",
      "type": "error"
    },
    {
      "inputs": [
        {
          "internalType": "address",
          "name": "implementation",
          "type": "address"
        }
      ],
      "name": "ERC1967InvalidImplementation",
      "type": "error"
    },
    {
      "inputs": [],
      "name": "ERC1967NonPayable",
      "type": "error"
    },
    {
      "inputs": [],
      "name": "EnforcedPause",
      "type": "error"
    },
    {
      "inputs": [],
      "name": "ExpectedPause",
      "type": "error"
    },
    {
      "inputs": [],
      "name": "FailedInnerCall",
      "type": "error"
    },
    {
      "inputs": [
        {
          "internalType": "bytes32",
          "name": "loanId",
          "type": "bytes32"
        },
        {
          "internalType": "uint16",
          "name": "number",
          "type": "uint16"
        }
      ],
      "name": "InstallmentNotFound",
      "type": "error"
    },
    {
      "inputs": [],
      "name": "InvalidInitialization",
      "type": "error"
    },
    {
      "inputs": [
        {
          "internalType": "uint256",
          "name": "amount",
          "type": "uint256"
        }
      ],
      "name": "InvalidPaymentAmount",
      "type": "error"
    },
    {
      "inputs": [
        {
          "internalType": "bytes32",
          "name": "loanId",
          "type": "bytes32"
        }
      ],
      "name": "LoanNotDisbursed",
      "type": "error"
    },
    {
      "inputs": [],
      "name": "NotInitializing",
      "type": "error"
    },
    {
      "inputs": [],
      "name": "ReentrancyGuardReentrantCall",
      "type": "error"
    },
    {
      "inputs": [
        {
          "internalType": "bytes32",
          "name": "loanId",
          "type": "bytes32"
        }
      ],
      "name": "ScheduleAlreadyExists",
      "type": "error"
    },
    {
      "inputs": [
        {
          "internalType": "bytes32",
          "name": "loanId",
          "type": "bytes32"
        }
      ],
      "name": "ScheduleNotFound",
      "type": "error"
    },
    {
      "inputs": [],
      "name": "UUPSUnauthorizedCallContext",
      "type": "error"
    },
    {
      "inputs": [
        {
          "internalType": "bytes32",
          "name": "slot",
          "type": "bytes32"
        }
      ],
      "name": "UUPSUnsupportedProxiableUUID",
      "type": "error"
    },
    {
      "anonymous": false,
      "inputs": [
        {
          "indexed": false,
          "internalType": "uint64",
          "name": "version",
          "type": "uint64"
        }
      ],
      "name": "Initialized",
      "type": "event"
    },
    {
      "anonymous": false,
      "inputs": [
        {
          "indexed": true,
          "internalType": "bytes32",
          "name": "loanId",
          "type": "bytes32"
        },
        {
          "indexed": true,
          "internalType": "uint16",
          "name": "installmentNumber",
          "type": "uint16"
        },
        {
          "indexed": false,
          "internalType": "uint256",
          "name": "daysOverdue",
          "type": "uint256"
        },
        {
          "indexed": false,
          "internalType": "uint256",
          "name": "timestamp",
          "type": "uint256"
        }
      ],
      "name": "InstallmentOverdue",
      "type": "event"
    },
    {
      "anonymous": false,
      "inputs": [
        {
          "indexed": true,
          "internalType": "bytes32",
          "name": "loanId",
          "type": "bytes32"
        },
        {
          "indexed": true,
          "internalType": "uint16",
          "name": "installmentNumber",
          "type": "uint16"
        },
        {
          "indexed": false,
          "internalType": "enum Repayment.InstallmentStatus",
          "name": "oldStatus",
          "type": "uint8"
        },
        {
          "indexed": false,
          "internalType": "enum Repayment.InstallmentStatus",
          "name": "newStatus",
          "type": "uint8"
        },
        {
          "indexed": false,
          "internalType": "uint256",
          "name": "timestamp",
          "type": "uint256"
        }
      ],
      "name": "InstallmentStatusChanged",
      "type": "event"
    },
    {
      "anonymous": false,
      "inputs": [
        {
          "indexed": true,
          "internalType": "bytes32",
          "name": "loanId",
          "type": "bytes32"
        },
        {
          "indexed": false,
          "internalType": "uint256",
          "name": "totalPaid",
          "type": "uint256"
        },
        {
          "indexed": false,
          "internalType": "uint256",
          "name": "timestamp",
          "type": "uint256"
        }
      ],
      "name": "LoanFullyRepaid",
      "type": "event"
    },
    {
      "anonymous": false,
      "inputs": [
        {
          "indexed": false,
          "internalType": "address",
          "name": "account",
          "type": "address"
        }
      ],
      "name": "Paused",
      "type": "event"
    },
    {
      "anonymous": false,
      "inputs": [
        {
          "indexed": true,
          "internalType": "bytes32",
          "name": "paymentId",
          "type": "bytes32"
        },
        {
          "indexed": true,
          "internalType": "bytes32",
          "name": "loanId",
          "type": "bytes32"
        },
        {
          "indexed": true,
          "internalType": "uint16",
          "name": "installmentNumber",
          "type": "uint16"
        },
        {
          "indexed": false,
          "internalType": "uint256",
          "name": "amount",
          "type": "uint256"
        },
        {
          "indexed": false,
          "internalType": "uint256",
          "name": "remainingBalance",
          "type": "uint256"
        },
        {
          "indexed": false,
          "internalType": "address",
          "name": "recordedBy",
          "type": "address"
        },
        {
          "indexed": false,
          "internalType": "uint256",
          "name": "timestamp",
          "type": "uint256"
        }
      ],
      "name": "PaymentRecorded",
      "type": "event"
    },
    {
      "anonymous": false,
      "inputs": [
        {
          "indexed": true,
          "internalType": "bytes32",
          "name": "role",
          "type": "bytes32"
        },
        {
          "indexed": true,
          "internalType": "bytes32",
          "name": "previousAdminRole",
          "type": "bytes32"
        },
        {
          "indexed": true,
          "internalType": "bytes32",
          "name": "newAdminRole",
          "type": "bytes32"
        }
      ],
      "name": "RoleAdminChanged",
      "type": "event"
    },
    {
      "anonymous": false,
      "inputs": [
        {
          "indexed": true,
          "internalType": "bytes32",
          "name": "role",
          "type": "bytes32"
        },
        {
          "indexed": true,
          "internalType": "address",
          "name": "account",
          "type": "address"
        },
        {
          "indexed": true,
          "internalType": "address",
          "name": "sender",
          "type": "address"
        }
      ],
      "name": "RoleGranted",
      "type": "event"
    },
    {
      "anonymous": false,
      "inputs": [
        {
          "indexed": true,
          "internalType": "bytes32",
          "name": "role",
          "type": "bytes32"
        },
        {
          "indexed": true,
          "internalType": "address",
          "name": "account",
          "type": "address"
        },
        {
          "indexed": true,
          "internalType": "address",
          "name": "sender",
          "type": "address"
        }
      ],
      "name": "RoleRevoked",
      "type": "event"
    },
    {
      "anonymous": false,
      "inputs": [
        {
          "indexed": true,
          "internalType": "bytes32",
          "name": "scheduleId",
          "type": "bytes32"
        },
        {
          "indexed": true,
          "internalType": "bytes32",
          "name": "loanId",
          "type": "bytes32"
        },
        {
          "indexed": true,
          "internalType": "address",
          "name": "borrower",
          "type": "address"
        },
        {
          "indexed": false,
          "internalType": "uint256",
          "name": "principal",
          "type": "uint256"
        },
        {
          "indexed": false,
          "internalType": "uint16",
          "name": "termMonths",
          "type": "uint16"
        },
        {
          "indexed": false,
          "internalType": "uint256",
          "name": "monthlyPayment",
          "type": "uint256"
        },
        {
          "indexed": false,
          "internalType": "uint256",
          "name": "totalAmount",
          "type": "uint256"
        },
        {
          "indexed": false,
          "internalType": "uint256",
          "name": "timestamp",
          "type": "uint256"
        }
      ],
      "name": "ScheduleCreated",
      "type": "event"
    },
    {
      "anonymous": false,
      "inputs": [
        {
          "indexed": false,
          "internalType": "address",
          "name": "account",
          "type": "address"
        }
      ],
      "name": "Unpaused",
      "type": "event"
    },
    {
      "anonymous": false,
      "inputs": [
        {
          "indexed": true,
          "internalType": "address",
          "name": "implementation",
          "type": "address"
        }
      ],
      "name": "Upgraded",
      "type": "event"
    },
    {
      "inputs": [],
      "name": "ADMIN_ROLE",
      "outputs": [
        {
          "internalType": "bytes32",
          "name": "",
          "type": "bytes32"
        }
      ],
      "stateMutability": "view",
      "type": "function"
    },
    {
      "inputs": [],
      "name": "DAYS_PER_MONTH",
      "outputs": [
        {
          "internalType": "uint256",
          "name": "",
          "type": "uint256"
        }
      ],
      "stateMutability": "view",
      "type": "function"
    },
    {
      "inputs": [],
      "name": "DEFAULT_ADMIN_ROLE",
      "outputs": [
        {
          "internalType": "bytes32",
          "name": "",
          "type": "bytes32"
        }
      ],
      "stateMutability": "view",
      "type": "function"
    },
    {
      "inputs": [],
      "name": "LOAN_OFFICER_ROLE",
      "outputs": [
        {
          "internalType": "bytes32",
          "name": "",
          "type": "bytes32"
        }
      ],
      "stateMutability": "view",
      "type": "function"
    },
    {
      "inputs": [],
      "name": "SECONDS_PER_DAY",
      "outputs": [
        {
          "internalType": "uint256",
          "name": "",
          "type": "uint256"
        }
      ],
      "stateMutability": "view",
      "type": "function"
    },
    {
      "inputs": [],
      "name": "SYSTEM_ROLE",
      "outputs": [
        {
          "internalType": "bytes32",
          "name": "",
          "type": "bytes32"
        }
      ],
      "stateMutability": "view",
      "type": "function"
    },
    {
      "inputs": [],
      "name": "UPGRADER_ROLE",
      "outputs": [
        {
          "internalType": "bytes32",
          "name": "",
          "type": "bytes32"
        }
      ],
      "stateMutability": "view",
      "type": "function"
    },
    {
      "inputs": [],
      "name": "UPGRADE_INTERFACE_VERSION",
      "outputs": [
        {
          "internalType": "string",
          "name": "",
          "type": "string"
        }
      ],
      "stateMutability": "view",
      "type": "function"
    },
    {
      "inputs": [],
      "name": "VERSION",
      "outputs": [
        {
          "internalType": "uint256",
          "name": "",
          "type": "uint256"
        }
      ],
      "stateMutability": "view",
      "type": "function"
    },
    {
      "inputs": [],
      "name": "auditRegistry",
      "outputs": [
        {
          "internalType": "contract IAuditRegistry",
          "name": "",
          "type": "address"
        }
      ],
      "stateMutability": "view",
      "type": "function"
    },
    {
      "inputs": [
        {
          "internalType": "bytes32",
          "name": "loanId",
          "type": "bytes32"
        },
        {
          "internalType": "address",
          "name": "borrower",
          "type": "address"
        },
        {
          "internalType": "uint256",
          "name": "principal",
          "type": "uint256"
        },
        {
          "internalType": "uint16",
          "name": "interestRateBps",
          "type": "uint16"
        },
        {
          "internalType": "uint16",
          "name": "termMonths",
          "type": "uint16"
        },
        {
          "internalType": "uint256",
          "name": "startDate",
          "type": "uint256"
        }
      ],
      "name": "createSchedule",
      "outputs": [
        {
          "internalType": "bytes32",
          "name": "scheduleId",
          "type": "bytes32"
        }
      ],
      "stateMutability": "nonpayable",
      "type": "function"
    },
    {
      "inputs": [
        {
          "internalType": "bytes32",
          "name": "loanId",
          "type": "bytes32"
        }
      ],
      "name": "getAllInstallments",
      "outputs": [
        {
          "components": [
            {
              "internalType": "uint16",
              "name": "number",
              "type": "uint16"
            },
            {
              "internalType": "uint256",
              "name": "dueDate",
              "type": "uint256"
            },
            {
              "internalType": "uint256",
              "name": "principalAmount",
              "type": "uint256"
            },
            {
              "internalType": "uint256",
              "name": "interestAmount",
              "type": "uint256"
            },
            {
              "internalType": "uint256",
              "name": "totalAmount",
              "type": "uint256"
            },
            {
              "internalType": "uint256",
              "name": "paidAmount",
              "type": "uint256"
            },
            {
              "internalType": "enum Repayment.InstallmentStatus",
              "name": "status",
              "type": "uint8"
            },
            {
              "internalType": "uint256",
              "name": "paidAt",
              "type": "uint256"
            }
          ],
          "internalType": "struct Repayment.Installment[]",
          "name": "",
          "type": "tuple[]"
        }
      ],
      "stateMutability": "view",
      "type": "function"
    },
    {
      "inputs": [
        {
          "internalType": "bytes32",
          "name": "loanId",
          "type": "bytes32"
        },
        {
          "internalType": "uint16",
          "name": "number",
          "type": "uint16"
        }
      ],
      "name": "getInstallment",
      "outputs": [
        {
          "components": [
            {
              "internalType": "uint16",
              "name": "number",
              "type": "uint16"
            },
            {
              "internalType": "uint256",
              "name": "dueDate",
              "type": "uint256"
            },
            {
              "internalType": "uint256",
              "name": "principalAmount",
              "type": "uint256"
            },
            {
              "internalType": "uint256",
              "name": "interestAmount",
              "type": "uint256"
            },
            {
              "internalType": "uint256",
              "name": "totalAmount",
              "type": "uint256"
            },
            {
              "internalType": "uint256",
              "name": "paidAmount",
              "type": "uint256"
            },
            {
              "internalType": "enum Repayment.InstallmentStatus",
              "name": "status",
              "type": "uint8"
            },
            {
              "internalType": "uint256",
              "name": "paidAt",
              "type": "uint256"
            }
          ],
          "internalType": "struct Repayment.Installment",
          "name": "",
          "type": "tuple"
        }
      ],
      "stateMutability": "view",
      "type": "function"
    },
    {
      "inputs": [
        {
          "internalType": "bytes32",
          "name": "loanId",
          "type": "bytes32"
        }
      ],
      "name": "getNextPayment",
      "outputs": [
        {
          "components": [
            {
              "internalType": "uint16",
              "name": "number",
              "type": "uint16"
            },
            {
              "internalType": "uint256",
              "name": "dueDate",
              "type": "uint256"
            },
            {
              "internalType": "uint256",
              "name": "principalAmount",
              "type": "uint256"
            },
            {
              "internalType": "uint256",
              "name": "interestAmount",
              "type": "uint256"
            },
            {
              "internalType": "uint256",
              "name": "totalAmount",
              "type": "uint256"
            },
            {
              "internalType": "uint256",
              "name": "paidAmount",
              "type": "uint256"
            },
            {
              "internalType": "enum Repayment.InstallmentStatus",
              "name": "status",
              "type": "uint8"
            },
            {
              "internalType": "uint256",
              "name": "paidAt",
              "type": "uint256"
            }
          ],
          "internalType": "struct Repayment.Installment",
          "name": "",
          "type": "tuple"
        }
      ],
      "stateMutability": "view",
      "type": "function"
    },
    {
      "inputs": [
        {
          "internalType": "bytes32",
          "name": "loanId",
          "type": "bytes32"
        }
      ],
      "name": "getPaidCount",
      "outputs": [
        {
          "internalType": "uint256",
          "name": "",
          "type": "uint256"
        }
      ],
      "stateMutability": "view",
      "type": "function"
    },
    {
      "inputs": [
        {
          "internalType": "bytes32",
          "name": "paymentId",
          "type": "bytes32"
        }
      ],
      "name": "getPayment",
      "outputs": [
        {
          "components": [
            {
              "internalType": "bytes32",
              "name": "paymentId",
              "type": "bytes32"
            },
            {
              "internalType": "bytes32",
              "name": "loanId",
              "type": "bytes32"
            },
            {
              "internalType": "bytes32",
              "name": "scheduleId",
              "type": "bytes32"
            },
            {
              "internalType": "uint16",
              "name": "installmentNumber",
              "type": "uint16"
            },
            {
              "internalType": "uint256",
              "name": "amount",
              "type": "uint256"
            },
            {
              "internalType": "enum Repayment.PaymentMethod",
              "name": "method",
              "type": "uint8"
            },
            {
              "internalType": "bytes32",
              "name": "referenceHash",
              "type": "bytes32"
            },
            {
              "internalType": "address",
              "name": "recordedBy",
              "type": "address"
            },
            {
              "internalType": "uint256",
              "name": "recordedAt",
              "type": "uint256"
            }
          ],
          "internalType": "struct Repayment.Payment",
          "name": "",
          "type": "tuple"
        }
      ],
      "stateMutability": "view",
      "type": "function"
    },
    {
      "inputs": [
        {
          "internalType": "bytes32",
          "name": "loanId",
          "type": "bytes32"
        }
      ],
      "name": "getPaymentHistory",
      "outputs": [
        {
          "internalType": "bytes32[]",
          "name": "",
          "type": "bytes32[]"
        }
      ],
      "stateMutability": "view",
      "type": "function"
    },
    {
      "inputs": [
        {
          "internalType": "bytes32",
          "name": "loanId",
          "type": "bytes32"
        }
      ],
      "name": "getRemainingBalance",
      "outputs": [
        {
          "internalType": "uint256",
          "name": "",
          "type": "uint256"
        }
      ],
      "stateMutability": "view",
      "type": "function"
    },
    {
      "inputs": [
        {
          "internalType": "bytes32",
          "name": "role",
          "type": "bytes32"
        }
      ],
      "name": "getRoleAdmin",
      "outputs": [
        {
          "internalType": "bytes32",
          "name": "",
          "type": "bytes32"
        }
      ],
      "stateMutability": "view",
      "type": "function"
    },
    {
      "inputs": [
        {
          "internalType": "bytes32",
          "name": "loanId",
          "type": "bytes32"
        }
      ],
      "name": "getSchedule",
      "outputs": [
        {
          "components": [
            {
              "internalType": "bytes32",
              "name": "scheduleId",
              "type": "bytes32"
            },
            {
              "internalType": "bytes32",
              "name": "loanId",
              "type": "bytes32"
            },
            {
              "internalType": "address",
              "name": "borrower",
              "type": "address"
            },
            {
              "internalType": "uint256",
              "name": "principal",
              "type": "uint256"
            },
            {
              "internalType": "uint16",
              "name": "interestRateBps",
              "type": "uint16"
            },
            {
              "internalType": "uint16",
              "name": "termMonths",
              "type": "uint16"
            },
            {
              "internalType": "uint256",
              "name": "monthlyPayment",
              "type": "uint256"
            },
            {
              "internalType": "uint256",
              "name": "totalAmount",
              "type": "uint256"
            },
            {
              "internalType": "uint256",
              "name": "totalInterest",
              "type": "uint256"
            },
            {
              "internalType": "uint256",
              "name": "totalPaid",
              "type": "uint256"
            },
            {
              "internalType": "uint256",
              "name": "startDate",
              "type": "uint256"
            },
            {
              "internalType": "uint256",
              "name": "createdAt",
              "type": "uint256"
            }
          ],
          "internalType": "struct Repayment.RepaymentSchedule",
          "name": "",
          "type": "tuple"
        }
      ],
      "stateMutability": "view",
      "type": "function"
    },
    {
      "inputs": [
        {
          "internalType": "bytes32",
          "name": "role",
          "type": "bytes32"
        },
        {
          "internalType": "address",
          "name": "account",
          "type": "address"
        }
      ],
      "name": "grantRole",
      "outputs": [],
      "stateMutability": "nonpayable",
      "type": "function"
    },
    {
      "inputs": [
        {
          "internalType": "bytes32",
          "name": "role",
          "type": "bytes32"
        },
        {
          "internalType": "address",
          "name": "account",
          "type": "address"
        }
      ],
      "name": "hasRole",
      "outputs": [
        {
          "internalType": "bool",
          "name": "",
          "type": "bool"
        }
      ],
      "stateMutability": "view",
      "type": "function"
    },
    {
      "inputs": [
        {
          "internalType": "address",
          "name": "_loanCore",
          "type": "address"
        },
        {
          "internalType": "address",
          "name": "_auditRegistry",
          "type": "address"
        },
        {
          "internalType": "address",
          "name": "admin",
          "type": "address"
        }
      ],
      "name": "initialize",
      "outputs": [],
      "stateMutability": "nonpayable",
      "type": "function"
    },
    {
      "inputs": [
        {
          "internalType": "bytes32",
          "name": "",
          "type": "bytes32"
        },
        {
          "internalType": "uint16",
          "name": "",
          "type": "uint16"
        }
      ],
      "name": "installments",
      "outputs": [
        {
          "internalType": "uint16",
          "name": "number",
          "type": "uint16"
        },
        {
          "internalType": "uint256",
          "name": "dueDate",
          "type": "uint256"
        },
        {
          "internalType": "uint256",
          "name": "principalAmount",
          "type": "uint256"
        },
        {
          "internalType": "uint256",
          "name": "interestAmount",
          "type": "uint256"
        },
        {
          "internalType": "uint256",
          "name": "totalAmount",
          "type": "uint256"
        },
        {
          "internalType": "uint256",
          "name": "paidAmount",
          "type": "uint256"
        },
        {
          "internalType": "enum Repayment.InstallmentStatus",
          "name": "status",
          "type": "uint8"
        },
        {
          "internalType": "uint256",
          "name": "paidAt",
          "type": "uint256"
        }
      ],
      "stateMutability": "view",
      "type": "function"
    },
    {
      "inputs": [],
      "name": "loanCore",
      "outputs": [
        {
          "internalType": "contract ILoanCore",
          "name": "",
          "type": "address"
        }
      ],
      "stateMutability": "view",
      "type": "function"
    },
    {
      "inputs": [
        {
          "internalType": "bytes32",
          "name": "",
          "type": "bytes32"
        },
        {
          "internalType": "uint256",
          "name": "",
          "type": "uint256"
        }
      ],
      "name": "loanPayments",
      "outputs": [
        {
          "internalType": "bytes32",
          "name": "",
          "type": "bytes32"
        }
      ],
      "stateMutability": "view",
      "type": "function"
    },
    {
      "inputs": [
        {
          "internalType": "bytes32",
          "name": "",
          "type": "bytes32"
        }
      ],
      "name": "loanToSchedule",
      "outputs": [
        {
          "internalType": "bytes32",
          "name": "",
          "type": "bytes32"
        }
      ],
      "stateMutability": "view",
      "type": "function"
    },
    {
      "inputs": [
        {
          "internalType": "bytes32",
          "name": "loanId",
          "type": "bytes32"
        },
        {
          "internalType": "uint16",
          "name": "installmentNumber",
          "type": "uint16"
        }
      ],
      "name": "markOverdue",
      "outputs": [
        {
          "internalType": "bool",
          "name": "",
          "type": "bool"
        }
      ],
      "stateMutability": "nonpayable",
      "type": "function"
    },
    {
      "inputs": [],
      "name": "pause",
      "outputs": [],
      "stateMutability": "nonpayable",
      "type": "function"
    },
    {
      "inputs": [],
      "name": "paused",
      "outputs": [
        {
          "internalType": "bool",
          "name": "",
          "type": "bool"
        }
      ],
      "stateMutability": "view",
      "type": "function"
    },
    {
      "inputs": [
        {
          "internalType": "bytes32",
          "name": "",
          "type": "bytes32"
        }
      ],
      "name": "payments",
      "outputs": [
        {
          "internalType": "bytes32",
          "name": "paymentId",
          "type": "bytes32"
        },
        {
          "internalType": "bytes32",
          "name": "loanId",
          "type": "bytes32"
        },
        {
          "internalType": "bytes32",
          "name": "scheduleId",
          "type": "bytes32"
        },
        {
          "internalType": "uint16",
          "name": "installmentNumber",
          "type": "uint16"
        },
        {
          "internalType": "uint256",
          "name": "amount",
          "type": "uint256"
        },
        {
          "internalType": "enum Repayment.PaymentMethod",
          "name": "method",
          "type": "uint8"
        },
        {
          "internalType": "bytes32",
          "name": "referenceHash",
          "type": "bytes32"
        },
        {
          "internalType": "address",
          "name": "recordedBy",
          "type": "address"
        },
        {
          "internalType": "uint256",
          "name": "recordedAt",
          "type": "uint256"
        }
      ],
      "stateMutability": "view",
      "type": "function"
    },
    {
      "inputs": [],
      "name": "proxiableUUID",
      "outputs": [
        {
          "internalType": "bytes32",
          "name": "",
          "type": "bytes32"
        }
      ],
      "stateMutability": "view",
      "type": "function"
    },
    {
      "inputs": [
        {
          "internalType": "bytes32",
          "name": "loanId",
          "type": "bytes32"
        },
        {
          "internalType": "uint16",
          "name": "installmentNumber",
          "type": "uint16"
        },
        {
          "internalType": "uint256",
          "name": "amount",
          "type": "uint256"
        },
        {
          "internalType": "enum Repayment.PaymentMethod",
          "name": "method",
          "type": "uint8"
        },
        {
          "internalType": "bytes32",
          "name": "referenceHash",
          "type": "bytes32"
        }
      ],
      "name": "recordPayment",
      "outputs": [
        {
          "internalType": "bytes32",
          "name": "paymentId",
          "type": "bytes32"
        }
      ],
      "stateMutability": "nonpayable",
      "type": "function"
    },
    {
      "inputs": [
        {
          "internalType": "bytes32",
          "name": "role",
          "type": "bytes32"
        },
        {
          "internalType": "address",
          "name": "callerConfirmation",
          "type": "address"
        }
      ],
      "name": "renounceRole",
      "outputs": [],
      "stateMutability": "nonpayable",
      "type": "function"
    },
    {
      "inputs": [
        {
          "internalType": "bytes32",
          "name": "role",
          "type": "bytes32"
        },
        {
          "internalType": "address",
          "name": "account",
          "type": "address"
        }
      ],
      "name": "revokeRole",
      "outputs": [],
      "stateMutability": "nonpayable",
      "type": "function"
    },
    {
      "inputs": [
        {
          "internalType": "bytes32",
          "name": "",
          "type": "bytes32"
        }
      ],
      "name": "schedules",
      "outputs": [
        {
          "internalType": "bytes32",
          "name": "scheduleId",
          "type": "bytes32"
        },
        {
          "internalType": "bytes32",
          "name": "loanId",
          "type": "bytes32"
        },
        {
          "internalType": "address",
          "name": "borrower",
          "type": "address"
        },
        {
          "internalType": "uint256",
          "name": "principal",
          "type": "uint256"
        },
        {
          "internalType": "uint16",
          "name": "interestRateBps",
          "type": "uint16"
        },
        {
          "internalType": "uint16",
          "name": "termMonths",
          "type": "uint16"
        },
        {
          "internalType": "uint256",
          "name": "monthlyPayment",
          "type": "uint256"
        },
        {
          "internalType": "uint256",
          "name": "totalAmount",
          "type": "uint256"
        },
        {
          "internalType": "uint256",
          "name": "totalInterest",
          "type": "uint256"
        },
        {
          "internalType": "uint256",
          "name": "totalPaid",
          "type": "uint256"
        },
        {
          "internalType": "uint256",
          "name": "startDate",
          "type": "uint256"
        },
        {
          "internalType": "uint256",
          "name": "createdAt",
          "type": "uint256"
        }
      ],
      "stateMutability": "view",
      "type": "function"
    },
    {
      "inputs": [
        {
          "internalType": "bytes4",
          "name": "interfaceId",
          "type": "bytes4"
        }
      ],
      "name": "supportsInterface",
      "outputs": [
        {
          "internalType": "bool",
          "name": "",
          "type": "bool"
        }
      ],
      "stateMutability": "view",
      "type": "function"
    },
    {
      "inputs": [],
      "name": "totalAmountCollected",
      "outputs": [
        {
          "internalType": "uint256",
          "name": "",
          "type": "uint256"
        }
      ],
      "stateMutability": "view",
      "type": "function"
    },
    {
      "inputs": [],
      "name": "totalPaymentsRecorded",
      "outputs": [
        {
          "internalType": "uint256",
          "name": "",
          "type": "uint256"
        }
      ],
      "stateMutability": "view",
      "type": "function"
    },
    {
      "inputs": [],
      "name": "unpause",
      "outputs": [],
      "stateMutability": "nonpayable",
      "type": "function"
    },
    {
      "inputs": [
        {
          "internalType": "address",
          "name": "newImplementation",
          "type": "address"
        },
        {
          "internalType": "bytes",
          "name": "data",
          "type": "bytes"
        }
      ],
      "name": "upgradeToAndCall",
      "outputs": [],
      "stateMutability": "payable",
      "type": "function"
    },
    {
      "inputs": [
        {
          "internalType": "bytes32",
          "name": "",
          "type": "bytes32"
        }
      ],
      "name": "usedPaymentReferences",
      "outputs": [
        {
          "internalType": "bool",
          "name": "",
          "type": "bool"
        }
      ],
      "stateMutability": "view",
      "type": "function"
    }
  ],
  "bytecode": "0x60a08060405234620000d157306080527ff0c57e16840df040f15088dc2f81fe391c3923bec73e23a9662efc9c229c6a009081549060ff8260401c16620000c257506001600160401b036002600160401b0319828216016200007c575b6040516135fc9081620000d7823960805181818161129a015261139e0152f35b6001600160401b031990911681179091556040519081527fc7f505b2f371ae2175ee4913f4499e1f2633a7b5936321eed1cdaeb6115181d290602090a13880806200005c565b63f92ee8a960e01b8152600490fd5b600080fdfe608080604052600436101561001357600080fd5b60003560e01c908163017adb3514612aa65750806301ffc9a714612a05578063058d9ed51461232a5780630716326d14612281578063168419fc14611bec57806316cac02a14611b46578063248a9ca314611af85780632692f36d14611ac45780632f2ff15d14611a6657806334fd794714611a1f57806336568abe146119b35780633adc277a146117f55780633f4ba83a146117545780633f654192146116955780634f1ef2861461131457806352d1902d146112725780635c975abb1461123057806371cb49c0146111fc57806374f0314f146111de57806375071d2a146111a357806375b238fc14611168578063765c328b146111345780638456cb59146110bb5780638aa2a37d14610ef95780638cfb2e9314610b7257806391d1485414610af857806399eda73514610abd5780639e59d9eb14610a9f578063a217fddf14610a83578063ad3cb1cc1461098c578063c0c53b8b14610690578063c236bb2214610672578063c83ae27814610653578063d1e16bfa14610591578063d547741f14610531578063e1d239db14610500578063e66eefc81461037e578063efc0aa6f14610314578063efc1559d14610275578063f72c0d8b1461023a578063fc5a5fa91461020e5763ffa1ad74146101ed57600080fd5b3461020957600060031936011261020957602060405160018152f35b600080fd5b346102095760206003193601126102095760043560005260046020526020604060002054604051908152f35b346102095760006003193601126102095760206040517f189ab7a9244df0848122154315af71fe140f3db0fe014031783b0946b8c9d2e38152f35b3461020957604060031936011261020957610100610291612ac0565b6004356000526003602052604060002061ffff8092166000526020526040600020908154169061030d60018201549160028101546003820154600483015490600584015492600760ff60068701541695015496604051988952602089015260408801526060870152608086015260a085015260c0840190612c59565b60e0820152f35b346102095760406003193601126102095761032d612ac0565b610335612d9a565b506004356000526004602052604060002054600052600360205261ffff6040600020911660005260205261010061036f6040600020612dec565b61037c6040518092612c66565bf35b346102095760206003193601126102095760405161039b81612b88565b6000815260006020820152600060408201526000606082015260006080820152600060a0820152600060c0820152600060e08201526000610100809201526004356000526005602052604060002090604051906103f782612b88565b825482526001830154602083019081526002840154936040840194855261ffff9485600383015416906060860191825260048301546080870190815260ff6005850154169060a088019060058310156104d1576101209989956104bd94845260068801549560c08801968752600873ffffffffffffffffffffffffffffffffffffffff9960e08b6007830154169a01998a520154998b8d019a8b526040519c518d525160208d01525160408c0152511660608a01525160808901525160a0880190612ad1565b5160c0860152511660e08401525190820152f35b7f4e487b7100000000000000000000000000000000000000000000000000000000600052602160045260246000fd5b34610209576020600319360112610209576004356000526007602052602060ff604060002054166040519015158152f35b346102095760406003193601126102095761058f600435610550612ade565b90806000527f02dd7bc7dec4dceedda775e58dd541e08a116c6c53815c0bd028192f7b62680060205261058a6001604060002001546130c3565b61342a565b005b34610209576020600319360112610209576004356000526002602052610180604060002080549060018101549073ffffffffffffffffffffffffffffffffffffffff6002820154166003820154600483015461ffff600585015490600686015492600787015494600888015496600a60098a0154990154996040519b8c5260208c015260408b015260608a015281811660808a015260101c1660a088015260c087015260e0860152610100850152610120840152610140830152610160820152f35b346102095760206003193601126102095761010061036f600435612e65565b34610209576000600319360112610209576020600954604051908152f35b34610209576060600319360112610209576106a9612b01565b6106b1612ade565b73ffffffffffffffffffffffffffffffffffffffff6044358181169290838103610209577ff0c57e16840df040f15088dc2f81fe391c3923bec73e23a9662efc9c229c6a009384549360ff8560401c16159467ffffffffffffffff811697881580610985575b6001809a14908161097b575b159081610972575b506109485781878a7fffffffffffffffffffffffffffffffffffffffffffffffff0000000000000000869516178a55610913575b5016918215159081610907575b816108fd575b501561089f57610844936107846134cd565b61078c6134cd565b6107946134cd565b877f9b779b17422d0df92223018b32b4d1fa46e071723d6817e2486d003becc55f00556107bf6134cd565b6107c76134cd565b7fcd5ed15c6e187e77e9aee88184c21f4f2182ab5827cb3b7e07fbedcd63f0330060ff1981541690556107f86134cd565b7fffffffffffffffffffffffff000000000000000000000000000000000000000092836000541617600055169086541617855561083481613108565b5061083e816131c7565b506132a8565b5061084b57005b7fc7f505b2f371ae2175ee4913f4499e1f2633a7b5936321eed1cdaeb6115181d291817fffffffffffffffffffffffffffffffffffffffffffffff00ffffffffffffffff60209354169055604051908152a1005b60646040517f08c379a000000000000000000000000000000000000000000000000000000000815260206004820152600c60248201527f5a65726f206164647265737300000000000000000000000000000000000000006044820152fd5b9050151588610772565b8583161515915061076c565b7fffffffffffffffffffffffffffffffffffffffffffffff00000000000000000016680100000000000000011788558961075f565b60046040517ff92ee8a9000000000000000000000000000000000000000000000000000000008152fd5b9050158a61072b565b303b159150610723565b5086610717565b34610209576000600319360112610209576040516040810181811067ffffffffffffffff821117610a5457604052600581526020907f352e302e30000000000000000000000000000000000000000000000000000000602082015260405180926020825282519283602084015260005b848110610a3d575050507fffffffffffffffffffffffffffffffffffffffffffffffffffffffffffffffe0601f836000604080968601015201168101030190f35b8181018301518682016040015285935082016109fc565b7f4e487b7100000000000000000000000000000000000000000000000000000000600052604160045260246000fd5b3461020957600060031936011261020957602060405160008152f35b34610209576000600319360112610209576020600854604051908152f35b346102095760006003193601126102095760206040517f4aefb755f364e5a7c1f1f975f9ac9f851f09c4f9751290e57619bbef3de2f9968152f35b3461020957604060031936011261020957610b11612ade565b6004356000527f02dd7bc7dec4dceedda775e58dd541e08a116c6c53815c0bd028192f7b62680060205273ffffffffffffffffffffffffffffffffffffffff60406000209116600052602052602060ff604060002054166040519015158152f35b3461020957604060031936011261020957600435610b8e612ac0565b610b96612f52565b610b9e612fac565b816000526020916004835260406000205415610ec8577f5719df9ef2c4678b547f89e4f5ae410dbf400fc51cf3ded434c55f6adea2c43f6000527f02dd7bc7dec4dceedda775e58dd541e08a116c6c53815c0bd028192f7b626800808452604060002033600052845260ff604060002054168015610e85575b610c219150612cbd565b80600052600483526040600020546000526003835260406000209161ffff8091169283600052845260406000209081541615610e28576006810180549060ff82169260048410156104d15783158015610e1e575b15610d9a576001015480421115610d3c57847fe9ca505a7926508b0b887c319d6f0271c091804e182ca555b0707ca92764c6f260406060957f64928a84c1bec8537065772203c0833e95f8595216beaa3370c077ab6cd585519795600360ff1962015180610ce48e9942612e58565b0493161790558151908152428b820152a3610d026040518092612c59565b600386820152426040820152a360017f9b779b17422d0df92223018b32b4d1fa46e071723d6817e2486d003becc55f005560405160018152f35b606487604051907f08c379a00000000000000000000000000000000000000000000000000000000082526004820152601a60248201527f52657061796d656e743a206e6f7420796574206f7665726475650000000000006044820152fd5b608487604051907f08c379a00000000000000000000000000000000000000000000000000000000082526004820152602560248201527f52657061796d656e743a20696e76616c69642073746174757320666f72206f7660448201527f65726475650000000000000000000000000000000000000000000000000000006064820152fd5b5060028414610c75565b606484604051907f08c379a000000000000000000000000000000000000000000000000000000000825280600483015260248201527f52657061796d656e743a20696e7374616c6c6d656e74206e6f7420666f756e646044820152fd5b507fa49807205ce4d355092ef5a8a18f56e8913cf4a201fbe287825b095693c2177560005283526040600020336000528352610c2160ff60406000205416610c17565b602490604051907f799d026a0000000000000000000000000000000000000000000000000000000082526004820152fd5b3461020957602080600319360112610209576004356000526004815260406000205490816000526002815261ffff8060046040600020015460101c1690610f3f82612d82565b93610f4d6040519586612bde565b8285527fffffffffffffffffffffffffffffffffffffffffffffffffffffffffffffffe0610f7a84612d82565b0160005b81811061109f57505060019283916001925b610fe2575b50505050604051918083018184528451809152816040850195019160005b828110610fc05785870386f35b909192938261010088610fd5849a8951612c66565b0197950193929101610fb3565b8383979597169282841161109657816000526003875260406000208460005287527fffffffffffffffffffffffffffffffffffffffffffffffffffffffffffffffff60406000209401908582116110675761105961105f92876110458c98612dec565b911690611052828b612dd8565b5288612dd8565b50612d6f565b929496610f90565b7f4e487b7100000000000000000000000000000000000000000000000000000000600052601160045260246000fd5b50959395610f95565b85906110ac979597612d9a565b82828801015201959395610f7e565b34610209576000600319360112610209576110d4613030565b6110dc612fac565b7fcd5ed15c6e187e77e9aee88184c21f4f2182ab5827cb3b7e07fbedcd63f03300600160ff198254161790557f62e78cea01bee320cd4e420270b5ea74000d11b0c9f74754ebdbfc544b05a2586020604051338152a1005b346102095760206003193601126102095760043560005260046020526020611160604060002054613001565b604051908152f35b346102095760006003193601126102095760206040517fa49807205ce4d355092ef5a8a18f56e8913cf4a201fbe287825b095693c217758152f35b346102095760006003193601126102095760206040517f5719df9ef2c4678b547f89e4f5ae410dbf400fc51cf3ded434c55f6adea2c43f8152f35b34610209576000600319360112610209576020604051620151808152f35b3461020957600060031936011261020957602073ffffffffffffffffffffffffffffffffffffffff60015416604051908152f35b3461020957600060031936011261020957602060ff7fcd5ed15c6e187e77e9aee88184c21f4f2182ab5827cb3b7e07fbedcd63f0330054166040519015158152f35b346102095760006003193601126102095773ffffffffffffffffffffffffffffffffffffffff7f00000000000000000000000000000000000000000000000000000000000000001630036112ea5760206040517f360894a13ba1a3210667c828492db98dca3e2076cc3735a920a3ca505d382bbc8152f35b60046040517fe07c8dba000000000000000000000000000000000000000000000000000000008152fd5b604060031936011261020957611328612b01565b602490813567ffffffffffffffff8111610209573660238201121561020957806004013561135581612c1f565b926113636040519485612bde565b818452602091828501933687838301011161020957816000928886930187378601015273ffffffffffffffffffffffffffffffffffffffff807f000000000000000000000000000000000000000000000000000000000000000016803014908115611667575b506112ea577f189ab7a9244df0848122154315af71fe140f3db0fe014031783b0946b8c9d2e3806000527f02dd7bc7dec4dceedda775e58dd541e08a116c6c53815c0bd028192f7b6268008452604060002033600052845260ff604060002054161561163157508116936040517f52d1902d0000000000000000000000000000000000000000000000000000000081528381600481895afa60009181611602575b5061149f578686604051907f4c9c8ce30000000000000000000000000000000000000000000000000000000082526004820152fd5b8590877f360894a13ba1a3210667c828492db98dca3e2076cc3735a920a3ca505d382bbc918281036115d45750843b156115a55750817fffffffffffffffffffffffff0000000000000000000000000000000000000000825416179055604051907fbc7cd75a20ee27fd9adebab32041f755214dbc6bffa90cc0225b39da2e5c2d3b600080a28151156115715750600061058f9481925190845af4903d15611568573d61154b81612c1f565b906115596040519283612bde565b8152600081943d92013e613526565b60609250613526565b93505050503461157d57005b807fb398979f0000000000000000000000000000000000000000000000000000000060049252fd5b82604051907f4c9c8ce30000000000000000000000000000000000000000000000000000000082526004820152fd5b604051907faa1d49a40000000000000000000000000000000000000000000000000000000082526004820152fd5b9091508481813d831161162a575b61161a8183612bde565b810103126102095751908861146a565b503d611610565b86604491604051917fe2517d3f000000000000000000000000000000000000000000000000000000008352336004840152820152fd5b9050817f360894a13ba1a3210667c828492db98dca3e2076cc3735a920a3ca505d382bbc54161415876113c9565b34610209576020806003193601126102095760043560005260048152604060002054806000526002825260406000209060009060018091600460019561ffff918291015460101c16925b6116ee575b8685604051908152f35b80861683811161174e578260005260038852604060002090600052875260ff6006604060002001541660048110156104d1578414611739575b611732849596612d6f565b95946116df565b6117326117468596612d2f565b955050611727565b506116e4565b346102095760006003193601126102095761176d613030565b7fcd5ed15c6e187e77e9aee88184c21f4f2182ab5827cb3b7e07fbedcd63f03300805460ff8116156117cb5760ff191690557f5db9ee0a495bf2e6ff9c91a7834c1ba4fdd244a5e8aa4e537bd38aeae4b073aa6020604051338152a1005b60046040517f8dfc202b000000000000000000000000000000000000000000000000000000008152fd5b3461020957602060031936011261020957600061016060405161181781612b6b565b8281528260208201528260408201528260608201528260808201528260a08201528260c08201528260e0820152826101008201528261012082015282610140820152015260043560005260046020526040600020546000526002602052610180604060002061016060405161188b81612b6b565b600a8354938483526001810154602084015273ffffffffffffffffffffffffffffffffffffffff60028201541660408401526003810154606084015261ffff6004820154818116608086015260101c1660a0840152600581015460c0840152600681015460e08401526007810154610100840152600881015461012084015260098101546101408401520154828201526040519283526020810151602084015273ffffffffffffffffffffffffffffffffffffffff60408201511660408401526060810151606084015261ffff608082015116608084015261ffff60a08201511660a084015260c081015160c084015260e081015160e08401526101008101516101008401526101208101516101208401526101408101516101408401520151610160820152f35b34610209576040600319360112610209576119cc612ade565b3373ffffffffffffffffffffffffffffffffffffffff8216036119f55761058f9060043561342a565b60046040517f6697b232000000000000000000000000000000000000000000000000000000008152fd5b346102095760406003193601126102095760243560043560005260066020526040600020805482101561020957602091611a5891612b24565b90546040519160031b1c8152f35b346102095760406003193601126102095761058f600435611a85612ade565b90806000527f02dd7bc7dec4dceedda775e58dd541e08a116c6c53815c0bd028192f7b626800602052611abf6001604060002001546130c3565b613383565b3461020957600060031936011261020957602073ffffffffffffffffffffffffffffffffffffffff60005416604051908152f35b34610209576020600319360112610209576004356000527f02dd7bc7dec4dceedda775e58dd541e08a116c6c53815c0bd028192f7b6268006020526020600160406000200154604051908152f35b34610209576020806003193601126102095760043560005260068152604060002060405190818382549182815201908192600052846000209060005b86828210611bd8578686611b9882880383612bde565b604051928392818401908285525180915260408401929160005b828110611bc157505050500390f35b835185528695509381019392810192600101611bb2565b835485529093019260019283019201611b82565b346102095760c060031936011261020957611c05612ade565b60643561ffff811681036102095761ffff608435166084350361020957611c2a612f52565b611c32612fac565b3360009081527f021e7b47d957252238e482ce63807c8c87d29d066c819e84063657a50c13de0060205260409020547f02dd7bc7dec4dceedda775e58dd541e08a116c6c53815c0bd028192f7b6268009060ff16801561223e575b80156121f9575b611c9e9150612cbd565b60043560005260046020526040600020546121c75773ffffffffffffffffffffffffffffffffffffffff602460208260005416604051928380927f0b8eed1000000000000000000000000000000000000000000000000000000000825260043560048301525afa9081156121bb57600091612180575b50600a8110156104d15760050361214e57808316156120f057604435156120925761ffff6084351615801580612080575b1561202257612710611d5d61ffff8516604435612d5c565b0491611d6f61ffff6084351684612d5c565b91611ff357611d888361ffff6084351660443504612d22565b94611d9583604435612d22565b9460405160043560208201524260408201526040815280606081011067ffffffffffffffff606083011117610a54576060810160405260208151910120938460005260026020526040600020918583556004356001840155600283018585167fffffffffffffffffffffffff00000000000000000000000000000000000000008254161790556044356003840155600483019081547fffffffffffffffffffffffffffffffffffffffffffffffffffffffff0000000061ffff63ffff000060843560101b169316911617179055876005830155866006830155600782015560a4356009820155600a4291015560043560005260046020528260406000205560015b61ffff6084351661ffff821611611f7157601e61ffff8216818102918183041490151715611067578062278d0061ffff8416020462015180149015171561106757806006611ef262278d0061ffff611f6c95160260a435612d22565b866000526003602052604060002061ffff841660005260205260406000209061ffff84167fffffffffffffffffffffffffffffffffffffffffffffffffffffffffffff0000835416178255600182015561ffff608435166044350460028201558760038201558960048201550160ff198154169055612d6f565b611e96565b6020848885858a60405193604435855261ffff6084351687860152604085015260608401524260808401521690827f979702ce03b219ba932ca88d10fe665ef1635817aa9314d8bf3a45d094e0023260a060043593a460017f9b779b17422d0df92223018b32b4d1fa46e071723d6817e2486d003becc55f0055604051908152f35b7f4e487b7100000000000000000000000000000000000000000000000000000000600052601260045260246000fd5b60646040517f08c379a000000000000000000000000000000000000000000000000000000000815260206004820152601760248201527f52657061796d656e743a20696e76616c6964207465726d0000000000000000006044820152fd5b5061016861ffff608435161115611d45565b60646040517f08c379a000000000000000000000000000000000000000000000000000000000815260206004820152601c60248201527f52657061796d656e743a20696e76616c6964207072696e636970616c000000006044820152fd5b60646040517f08c379a000000000000000000000000000000000000000000000000000000000815260206004820152602060248201527f52657061796d656e743a207a65726f20626f72726f77657220616464726573736044820152fd5b60246040517fc34abfb50000000000000000000000000000000000000000000000000000000081526004356004820152fd5b90506020813d6020116121b3575b8161219b60209383612bde565b810103126102095751600a8110156102095784611d14565b3d915061218e565b6040513d6000823e3d90fd5b60246040517fc2cae9ed0000000000000000000000000000000000000000000000000000000081526004356004820152fd5b507f4aefb755f364e5a7c1f1f975f9ac9f851f09c4f9751290e57619bbef3de2f996600052602052604060002033600052602052611c9e60ff60406000205416611c94565b507fa49807205ce4d355092ef5a8a18f56e8913cf4a201fbe287825b095693c217756000528060205260406000203360005260205260ff60406000205416611c8d565b346102095760206003193601126102095760043560005260056020526101206040600020805490600181015490600281015461231861ffff600384015416600484015460ff60058601541691600686015494600873ffffffffffffffffffffffffffffffffffffffff60078901541697015497604051998a5260208a015260408901526060880152608087015260a0860190612ad1565b60c084015260e0830152610100820152f35b346102095760a060031936011261020957612343612ac0565b6005606435101561020957612356612f52565b61235e612fac565b6004356000526004602052604060002054156129d3573360009081527fbfdaa4168167267cd9ce62d8efbbe83e24e07eda649f3fd7fa944ca680008fc360205260409020547f02dd7bc7dec4dceedda775e58dd541e08a116c6c53815c0bd028192f7b6268009060ff16801561298e575b6123d99150612cbd565b6044351561295c57608435600052600760205260ff6040600020541661292a5760043560005260046020526040600020548060005260026020526040600020906003602052604060002061ffff9081851660005260205260406000209381855416156128f057600685015493600460ff861610156104d157600160ff86161461289257600890600587016124706044358254612d22565b908190556004880154811061287b575060068701805460ff191660011790554260078801555b016124a46044358254612d22565b90556124b1600a54612d2f565b80600a55604051602081019160043583527fffff0000000000000000000000000000000000000000000000000000000000008460f01b1660408301526042820152604281526124ff81612bc2565b5190209384600052600560205260406000208581556004356001820155846002820155600381018484167fffffffffffffffffffffffffffffffffffffffffffffffffffffffffffff000082541617905560443560048201556005810160ff1981541660ff60643516179055608435600682015560078101337fffffffffffffffffffffffff000000000000000000000000000000000000000082541617905560084291015560043560005260066020526040600020805468010000000000000000811015610a54576125d791600182018155612b24565b81549060031b907fffffffffffffffffffffffffffffffffffffffffffffffffffffffffffffffff88831b921b191617905560843560005260076020526040600020600160ff1982541617905561262f600854612d2f565b600855612640604435600954612d22565b60095560ff600661265086613001565b97604051604435815289602082015233604082015242606082015286861690897f4534ce40d1abb72f70f41e51aa575d8aa2c22a8aed35ce8eb7b31fa416bc3bdc608060043593a40154169260048410156104d1578360209360c49260ff9687861603612828575b5050600073ffffffffffffffffffffffffffffffffffffffff6001541660405186810190600435825260443560408201526084356060820152606081526126fe81612bc2565b5190209260405197889687957f58e7e1400000000000000000000000000000000000000000000000000000000087528c60048801527f7061796d656e7400000000000000000000000000000000000000000000000000602488015260066044880152606487015216608485015260a48401525af180156121bb576127fd575b50602092156127b4575b5060017f9b779b17422d0df92223018b32b4d1fa46e071723d6817e2486d003becc55f0055604051908152f35b6000526002825260086040600020015460405190815242838201527f357fe8ad437bc6ab745bf7bdcbf2998203982ff6b68f5009b07c2a4919e7a32a604060043592a282612787565b602090813d8311612821575b6128138183612bde565b81010312610209578361277d565b503d612809565b6040519161283883898816612c59565b61284487840185612c59565b42604084015216907f64928a84c1bec8537065772203c0833e95f8595216beaa3370c077ab6cd58551606060043592a388806126b8565b1561249657600260ff198716176006880155612496565b60646040517f08c379a000000000000000000000000000000000000000000000000000000000815260206004820152601d60248201527f52657061796d656e743a20616c72656164792066756c6c7920706169640000006044820152fd5b604491604051917fc772f8440000000000000000000000000000000000000000000000000000000083526004356004840152166024820152fd5b60246040517fe83be6e30000000000000000000000000000000000000000000000000000000081526084356004820152fd5b60246040517f1fe862180000000000000000000000000000000000000000000000000000000081526044356004820152fd5b507f5719df9ef2c4678b547f89e4f5ae410dbf400fc51cf3ded434c55f6adea2c43f6000526020526040600020336000526020526123d960ff604060002054166123cf565b60246040517f799d026a0000000000000000000000000000000000000000000000000000000081526004356004820152fd5b34610209576020600319360112610209576004357fffffffff00000000000000000000000000000000000000000000000000000000811680910361020957807f7965db0b0000000000000000000000000000000000000000000000000000000060209214908115612a7c575b506040519015158152f35b7f01ffc9a70000000000000000000000000000000000000000000000000000000091501482612a71565b346102095760006003193601126102095780601e60209252f35b6024359061ffff8216820361020957565b9060058210156104d15752565b6024359073ffffffffffffffffffffffffffffffffffffffff8216820361020957565b6004359073ffffffffffffffffffffffffffffffffffffffff8216820361020957565b8054821015612b3c5760005260206000200190600090565b7f4e487b7100000000000000000000000000000000000000000000000000000000600052603260045260246000fd5b610180810190811067ffffffffffffffff821117610a5457604052565b610120810190811067ffffffffffffffff821117610a5457604052565b610100810190811067ffffffffffffffff821117610a5457604052565b6080810190811067ffffffffffffffff821117610a5457604052565b90601f7fffffffffffffffffffffffffffffffffffffffffffffffffffffffffffffffe0910116810190811067ffffffffffffffff821117610a5457604052565b67ffffffffffffffff8111610a5457601f017fffffffffffffffffffffffffffffffffffffffffffffffffffffffffffffffe01660200190565b9060048210156104d15752565b60e0809161ffff81511684526020810151602085015260408101516040850152606081015160608501526080810151608085015260a081015160a0850152612cb660c082015160c0860190612c59565b0151910152565b15612cc457565b60646040517f08c379a000000000000000000000000000000000000000000000000000000000815260206004820152601960248201527f52657061796d656e743a206e6f7420617574686f72697a6564000000000000006044820152fd5b9190820180921161106757565b7fffffffffffffffffffffffffffffffffffffffffffffffffffffffffffffffff81146110675760010190565b8181029291811591840414171561106757565b61ffff8091169081146110675760010190565b67ffffffffffffffff8111610a545760051b60200190565b60405190612da782612ba5565b8160e06000918281528260208201528260408201528260608201528260808201528260a08201528260c08201520152565b8051821015612b3c5760209160051b010190565b90604051612df981612ba5565b809261ffff815416825260018101546020830152600281015460408301526003810154606083015260048101546080830152600581015460a083015260ff60068201541660048110156104d15760e09160079160c08501520154910152565b9190820391821161106757565b612e6d612d9a565b5060009081526004906020906004602052604092604082205493848352600260205260408320946001948591600460019861ffff918291015460101c16935b612ec5575b505050505050505050612ec2612d9a565b90565b808916848111612f4c5782885260038452858820908852835284872060ff60068201541687811015612f20578903612f0d5750612f058899989798612d6f565b989796612eac565b975050505050505050612ec29150612dec565b60248960218a7f4e487b7100000000000000000000000000000000000000000000000000000000835252fd5b50612eb1565b7f9b779b17422d0df92223018b32b4d1fa46e071723d6817e2486d003becc55f006002815414612f825760029055565b60046040517f3ee5aeb5000000000000000000000000000000000000000000000000000000008152fd5b60ff7fcd5ed15c6e187e77e9aee88184c21f4f2182ab5827cb3b7e07fbedcd63f033005416612fd757565b60046040517fd93c0665000000000000000000000000000000000000000000000000000000008152fd5b60005260026020526040600020600860068201549101548181101561302957612ec291612e58565b5050600090565b3360009081527fb16e88c42fd4e48df2dd6a2eabd6bc9aec654ec170056b470819f8892cc6431c60205260409020547fa49807205ce4d355092ef5a8a18f56e8913cf4a201fbe287825b095693c217759060ff161561308c5750565b604490604051907fe2517d3f0000000000000000000000000000000000000000000000000000000082523360048301526024820152fd5b806000527f02dd7bc7dec4dceedda775e58dd541e08a116c6c53815c0bd028192f7b62680060205260406000203360005260205260ff604060002054161561308c5750565b73ffffffffffffffffffffffffffffffffffffffff1660008181527fb7db2dd08fcb62d0c9e08c51941cae53c267786a0b75803fb7960902fc8ef97d60205260408120549091907f02dd7bc7dec4dceedda775e58dd541e08a116c6c53815c0bd028192f7b6268009060ff166131c2578280526020526040822081835260205260408220600160ff1982541617905533917f2f8788117e7eff1d82e926ec794901d17c78024a50270940304540a733656f0d8180a4600190565b505090565b73ffffffffffffffffffffffffffffffffffffffff1660008181527fb16e88c42fd4e48df2dd6a2eabd6bc9aec654ec170056b470819f8892cc6431c60205260408120549091907fa49807205ce4d355092ef5a8a18f56e8913cf4a201fbe287825b095693c21775907f02dd7bc7dec4dceedda775e58dd541e08a116c6c53815c0bd028192f7b6268009060ff166132a2578184526020526040832082845260205260408320600160ff198254161790557f2f8788117e7eff1d82e926ec794901d17c78024a50270940304540a733656f0d339380a4600190565b50505090565b73ffffffffffffffffffffffffffffffffffffffff1660008181527fab71e3f32666744d246edff3f96e4bdafee2e9867098cdd118a979a7464786a860205260408120549091907f189ab7a9244df0848122154315af71fe140f3db0fe014031783b0946b8c9d2e3907f02dd7bc7dec4dceedda775e58dd541e08a116c6c53815c0bd028192f7b6268009060ff166132a2578184526020526040832082845260205260408320600160ff198254161790557f2f8788117e7eff1d82e926ec794901d17c78024a50270940304540a733656f0d339380a4600190565b906000918083527f02dd7bc7dec4dceedda775e58dd541e08a116c6c53815c0bd028192f7b6268008060205273ffffffffffffffffffffffffffffffffffffffff6040852093169283855260205260ff604085205416156000146132a2578184526020526040832082845260205260408320600160ff198254161790557f2f8788117e7eff1d82e926ec794901d17c78024a50270940304540a733656f0d339380a4600190565b906000918083527f02dd7bc7dec4dceedda775e58dd541e08a116c6c53815c0bd028192f7b6268008060205273ffffffffffffffffffffffffffffffffffffffff6040852093169283855260205260ff6040852054166000146132a257818452602052604083208284526020526040832060ff1981541690557ff6391f5c32d9c69d2a47ea670b442974b53935d1edc7fd64eb21e047a839171b339380a4600190565b60ff7ff0c57e16840df040f15088dc2f81fe391c3923bec73e23a9662efc9c229c6a005460401c16156134fc57565b60046040517fd7e6bcf8000000000000000000000000000000000000000000000000000000008152fd5b90613565575080511561353b57805190602001fd5b60046040517f1425ea42000000000000000000000000000000000000000000000000000000008152fd5b815115806135bd575b613576575090565b60249073ffffffffffffffffffffffffffffffffffffffff604051917f9996b315000000000000000000000000000000000000000000000000000000008352166004820152fd5b50803b1561356e56fea26469706673582212204b8db67b48ba139fc5cd443a9ee1c5680420f7e02a71cc221dad33e9a655cf4e64736f6c63430008160033",
  "linkReferences": {},
  "deployedLinkReferences": {}
}